{
  "contractName": "dOrgan",
  "abi": [
    {
      "inputs": [],
      "payable": false,
      "stateMutability": "nonpayable",
      "type": "constructor",
      "signature": "constructor"
    },
    {
      "anonymous": false,
      "inputs": [],
      "name": "donorDead",
      "type": "event",
      "signature": "0xb97ea88899dd08b6ffdec3d991bcb6205f535ca4c1e212a0b350bfdb3ab11d8f"
    },
    {
      "constant": true,
      "inputs": [],
      "name": "getAdmin",
      "outputs": [
        {
          "name": "",
          "type": "address"
        }
      ],
      "payable": false,
      "stateMutability": "view",
      "type": "function",
      "signature": "0x6e9960c3"
    },
    {
      "constant": false,
      "inputs": [
        {
          "name": "admin1",
          "type": "address"
        }
      ],
      "name": "setAdmin",
      "outputs": [],
      "payable": false,
      "stateMutability": "nonpayable",
      "type": "function",
      "signature": "0x704b6c02"
    },
    {
      "constant": false,
      "inputs": [
        {
          "name": "addr",
          "type": "address"
        },
        {
          "name": "priority1",
          "type": "uint256"
        }
      ],
      "name": "addReciever",
      "outputs": [],
      "payable": false,
      "stateMutability": "nonpayable",
      "type": "function",
      "signature": "0xa9938919"
    },
    {
      "constant": true,
      "inputs": [],
      "name": "getRecievers",
      "outputs": [
        {
          "name": "",
          "type": "address[]"
        }
      ],
      "payable": false,
      "stateMutability": "view",
      "type": "function",
      "signature": "0x6cfadb4d"
    },
    {
      "constant": false,
      "inputs": [
        {
          "name": "addr",
          "type": "address"
        }
      ],
      "name": "removeReciever",
      "outputs": [],
      "payable": false,
      "stateMutability": "nonpayable",
      "type": "function",
      "signature": "0x9609ee4c"
    },
    {
      "constant": false,
      "inputs": [
        {
          "name": "oldAddr",
          "type": "address"
        },
        {
          "name": "newAddr",
          "type": "address"
        }
      ],
      "name": "updateReciever",
      "outputs": [],
      "payable": false,
      "stateMutability": "nonpayable",
      "type": "function",
      "signature": "0xbd2103f2"
    },
    {
      "constant": false,
      "inputs": [
        {
          "name": "addr",
          "type": "address"
        }
      ],
      "name": "addRecieverToWaitlist",
      "outputs": [],
      "payable": false,
      "stateMutability": "nonpayable",
      "type": "function",
      "signature": "0x912c6527"
    },
    {
      "constant": false,
      "inputs": [
        {
          "name": "addr",
          "type": "address"
        }
      ],
      "name": "removeRecieverFromWaitlist",
      "outputs": [],
      "payable": false,
      "stateMutability": "nonpayable",
      "type": "function",
      "signature": "0xdcebe704"
    },
    {
      "constant": true,
      "inputs": [
        {
          "name": "addr",
          "type": "address"
        }
      ],
      "name": "getPriority",
      "outputs": [
        {
          "name": "",
          "type": "uint256"
        }
      ],
      "payable": false,
      "stateMutability": "view",
      "type": "function",
      "signature": "0x1cc1befe"
    },
    {
      "constant": false,
      "inputs": [
        {
          "name": "addr",
          "type": "address"
        },
        {
          "name": "priority1",
          "type": "uint256"
        }
      ],
      "name": "changePriority",
      "outputs": [],
      "payable": false,
      "stateMutability": "nonpayable",
      "type": "function",
      "signature": "0x9d3042ab"
    },
    {
      "constant": false,
      "inputs": [
        {
          "name": "addr",
          "type": "address"
        }
      ],
      "name": "verifyRecieverByAdmin",
      "outputs": [],
      "payable": false,
      "stateMutability": "nonpayable",
      "type": "function",
      "signature": "0x3d0de878"
    },
    {
      "constant": false,
      "inputs": [
        {
          "name": "addr",
          "type": "address"
        }
      ],
      "name": "getVerificationRecieverByAdmin",
      "outputs": [],
      "payable": false,
      "stateMutability": "nonpayable",
      "type": "function",
      "signature": "0x488ff97b"
    },
    {
      "constant": false,
      "inputs": [
        {
          "name": "addr",
          "type": "address"
        }
      ],
      "name": "addLiveDonor",
      "outputs": [],
      "payable": false,
      "stateMutability": "nonpayable",
      "type": "function",
      "signature": "0x17091449"
    },
    {
      "constant": true,
      "inputs": [],
      "name": "getLiveDonors",
      "outputs": [
        {
          "name": "",
          "type": "address[]"
        }
      ],
      "payable": false,
      "stateMutability": "view",
      "type": "function",
      "signature": "0xb3f33391"
    },
    {
      "constant": false,
      "inputs": [
        {
          "name": "addr",
          "type": "address"
        }
      ],
      "name": "removeLiveDonor",
      "outputs": [],
      "payable": false,
      "stateMutability": "nonpayable",
      "type": "function",
      "signature": "0x83b03b17"
    },
    {
      "constant": false,
      "inputs": [
        {
          "name": "oldAddr",
          "type": "address"
        },
        {
          "name": "newAddr",
          "type": "address"
        }
      ],
      "name": "updateLiveDonor",
      "outputs": [],
      "payable": false,
      "stateMutability": "nonpayable",
      "type": "function",
      "signature": "0x27c757cd"
    },
    {
      "constant": false,
      "inputs": [
        {
          "name": "addr",
          "type": "address"
        }
      ],
      "name": "approveLiveTransplant",
      "outputs": [],
      "payable": false,
      "stateMutability": "nonpayable",
      "type": "function",
      "signature": "0xf0126f5e"
    },
    {
      "constant": false,
      "inputs": [
        {
          "name": "addr",
          "type": "address"
        }
      ],
      "name": "removeLiveTransplantApproval",
      "outputs": [],
      "payable": false,
      "stateMutability": "nonpayable",
      "type": "function",
      "signature": "0x50894de5"
    },
    {
      "constant": false,
      "inputs": [
        {
          "name": "addr",
          "type": "address"
        }
      ],
      "name": "verifyLiveDonorByAdmin",
      "outputs": [],
      "payable": false,
      "stateMutability": "nonpayable",
      "type": "function",
      "signature": "0x574b49ee"
    },
    {
      "constant": false,
      "inputs": [
        {
          "name": "addr",
          "type": "address"
        }
      ],
      "name": "getVerificationLiveDonorByAdmin",
      "outputs": [],
      "payable": false,
      "stateMutability": "nonpayable",
      "type": "function",
      "signature": "0x4106de13"
    },
    {
      "constant": false,
      "inputs": [
        {
          "name": "addr",
          "type": "address"
        }
      ],
      "name": "addDeadDonor",
      "outputs": [],
      "payable": false,
      "stateMutability": "nonpayable",
      "type": "function",
      "signature": "0x2d062add"
    },
    {
      "constant": true,
      "inputs": [],
      "name": "getDeadDonors",
      "outputs": [
        {
          "name": "",
          "type": "address[]"
        }
      ],
      "payable": false,
      "stateMutability": "view",
      "type": "function",
      "signature": "0x118ca996"
    },
    {
      "constant": false,
      "inputs": [
        {
          "name": "addr",
          "type": "address"
        }
      ],
      "name": "removeDeadDonor",
      "outputs": [],
      "payable": false,
      "stateMutability": "nonpayable",
      "type": "function",
      "signature": "0x045b5d8e"
    },
    {
      "constant": false,
      "inputs": [
        {
          "name": "oldAddr",
          "type": "address"
        },
        {
          "name": "newAddr",
          "type": "address"
        }
      ],
      "name": "updateDeadDonor",
      "outputs": [],
      "payable": false,
      "stateMutability": "nonpayable",
      "type": "function",
      "signature": "0x53160c92"
    },
    {
      "constant": false,
      "inputs": [
        {
          "name": "addr",
          "type": "address"
        }
      ],
      "name": "approveDeadTransplant",
      "outputs": [],
      "payable": false,
      "stateMutability": "nonpayable",
      "type": "function",
      "signature": "0xbf6346de"
    },
    {
      "constant": false,
      "inputs": [
        {
          "name": "addr",
          "type": "address"
        }
      ],
      "name": "removeDeadTransplantApproval",
      "outputs": [],
      "payable": false,
      "stateMutability": "nonpayable",
      "type": "function",
      "signature": "0x39fa98b6"
    },
    {
      "constant": false,
      "inputs": [
        {
          "name": "addr",
          "type": "address"
        }
      ],
      "name": "verifyDeadDonorByAdmin",
      "outputs": [],
      "payable": false,
      "stateMutability": "nonpayable",
      "type": "function",
      "signature": "0xac66404b"
    },
    {
      "constant": false,
      "inputs": [
        {
          "name": "addr",
          "type": "address"
        }
      ],
      "name": "getVerificationDeadDonorByAdmin",
      "outputs": [],
      "payable": false,
      "stateMutability": "nonpayable",
      "type": "function",
      "signature": "0x8cafc7e7"
    },
    {
      "constant": true,
      "inputs": [
        {
          "name": "addr",
          "type": "address"
        }
      ],
      "name": "getKidnies",
      "outputs": [
        {
          "name": "",
          "type": "uint256"
        }
      ],
      "payable": false,
      "stateMutability": "view",
      "type": "function",
      "signature": "0x63a4f8a5"
    },
    {
      "constant": false,
      "inputs": [
        {
          "name": "reciever1",
          "type": "address"
        },
        {
          "name": "donor1",
          "type": "address"
        }
      ],
      "name": "transplantLiveDonor",
      "outputs": [],
      "payable": false,
      "stateMutability": "nonpayable",
      "type": "function",
      "signature": "0xa23675f3"
    },
    {
      "constant": false,
      "inputs": [
        {
          "name": "reciever1",
          "type": "address"
        },
        {
          "name": "donor1",
          "type": "address"
        }
      ],
      "name": "transplantDeadDonor",
      "outputs": [],
      "payable": false,
      "stateMutability": "nonpayable",
      "type": "function",
      "signature": "0x8c1b6511"
    },
    {
      "constant": true,
      "inputs": [
        {
          "name": "reciever1",
          "type": "address"
        }
      ],
      "name": "getTransplant",
      "outputs": [
        {
          "name": "",
          "type": "address"
        }
      ],
      "payable": false,
      "stateMutability": "view",
      "type": "function",
      "signature": "0xe262528e"
    }
  ],
  "bytecode": "0x608060405234801561001057600080fd5b50336000806101000a81548173ffffffffffffffffffffffffffffffffffffffff021916908373ffffffffffffffffffffffffffffffffffffffff160217905550614b88806100606000396000f3fe608060405260043610610190576000357c010000000000000000000000000000000000000000000000000000000090048063045b5d8e14610195578063118ca996146101e657806317091449146102525780631cc1befe146102a357806327c757cd146103085780632d062add1461037957806339fa98b6146103ca5780633d0de8781461041b5780634106de131461046c578063488ff97b146104bd57806350894de51461050e57806353160c921461055f578063574b49ee146105d057806363a4f8a5146106215780636cfadb4d146106865780636e9960c3146106f2578063704b6c021461074957806383b03b171461079a5780638c1b6511146107eb5780638cafc7e71461085c578063912c6527146108ad5780639609ee4c146108fe5780639d3042ab1461094f578063a23675f3146109aa578063a993891914610a1b578063ac66404b14610a76578063b3f3339114610ac7578063bd2103f214610b33578063bf6346de14610ba4578063dcebe70414610bf5578063e262528e14610c46578063f0126f5e14610cd7575b600080fd5b3480156101a157600080fd5b506101e4600480360360208110156101b857600080fd5b81019080803573ffffffffffffffffffffffffffffffffffffffff169060200190929190505050610d28565b005b3480156101f257600080fd5b506101fb610f7d565b6040518080602001828103825283818151815260200191508051906020019060200280838360005b8381101561023e578082015181840152602081019050610223565b505050509050019250505060405180910390f35b34801561025e57600080fd5b506102a16004803603602081101561027557600080fd5b81019080803573ffffffffffffffffffffffffffffffffffffffff16906020019092919050505061100b565b005b3480156102af57600080fd5b506102f2600480360360208110156102c657600080fd5b81019080803573ffffffffffffffffffffffffffffffffffffffff16906020019092919050505061129f565b6040518082815260200191505060405180910390f35b34801561031457600080fd5b506103776004803603604081101561032b57600080fd5b81019080803573ffffffffffffffffffffffffffffffffffffffff169060200190929190803573ffffffffffffffffffffffffffffffffffffffff169060200190929190505050611475565b005b34801561038557600080fd5b506103c86004803603602081101561039c57600080fd5b81019080803573ffffffffffffffffffffffffffffffffffffffff169060200190929190505050611551565b005b3480156103d657600080fd5b50610419600480360360208110156103ed57600080fd5b81019080803573ffffffffffffffffffffffffffffffffffffffff1690602001909291905050506117e5565b005b34801561042757600080fd5b5061046a6004803603602081101561043e57600080fd5b81019080803573ffffffffffffffffffffffffffffffffffffffff1690602001909291905050506119f5565b005b34801561047857600080fd5b506104bb6004803603602081101561048f57600080fd5b81019080803573ffffffffffffffffffffffffffffffffffffffff169060200190929190505050611bdd565b005b3480156104c957600080fd5b5061050c600480360360208110156104e057600080fd5b81019080803573ffffffffffffffffffffffffffffffffffffffff169060200190929190505050611d01565b005b34801561051a57600080fd5b5061055d6004803603602081101561053157600080fd5b81019080803573ffffffffffffffffffffffffffffffffffffffff169060200190929190505050611e25565b005b34801561056b57600080fd5b506105ce6004803603604081101561058257600080fd5b81019080803573ffffffffffffffffffffffffffffffffffffffff169060200190929190803573ffffffffffffffffffffffffffffffffffffffff16906020019092919050505061200f565b005b3480156105dc57600080fd5b5061061f600480360360208110156105f357600080fd5b81019080803573ffffffffffffffffffffffffffffffffffffffff1690602001909291905050506120eb565b005b34801561062d57600080fd5b506106706004803603602081101561064457600080fd5b81019080803573ffffffffffffffffffffffffffffffffffffffff1690602001909291905050506122d3565b6040518082815260200191505060405180910390f35b34801561069257600080fd5b5061069b6123e5565b6040518080602001828103825283818151815260200191508051906020019060200280838360005b838110156106de5780820151818401526020810190506106c3565b505050509050019250505060405180910390f35b3480156106fe57600080fd5b50610707612473565b604051808273ffffffffffffffffffffffffffffffffffffffff1673ffffffffffffffffffffffffffffffffffffffff16815260200191505060405180910390f35b34801561075557600080fd5b506107986004803603602081101561076c57600080fd5b81019080803573ffffffffffffffffffffffffffffffffffffffff16906020019092919050505061249c565b005b3480156107a657600080fd5b506107e9600480360360208110156107bd57600080fd5b81019080803573ffffffffffffffffffffffffffffffffffffffff1690602001909291905050506125a3565b005b3480156107f757600080fd5b5061085a6004803603604081101561080e57600080fd5b81019080803573ffffffffffffffffffffffffffffffffffffffff169060200190929190803573ffffffffffffffffffffffffffffffffffffffff1690602001909291905050506127f8565b005b34801561086857600080fd5b506108ab6004803603602081101561087f57600080fd5b81019080803573ffffffffffffffffffffffffffffffffffffffff169060200190929190505050613173565b005b3480156108b957600080fd5b506108fc600480360360208110156108d057600080fd5b81019080803573ffffffffffffffffffffffffffffffffffffffff169060200190929190505050613297565b005b34801561090a57600080fd5b5061094d6004803603602081101561092157600080fd5b81019080803573ffffffffffffffffffffffffffffffffffffffff1690602001909291905050506134ac565b005b34801561095b57600080fd5b506109a86004803603604081101561097257600080fd5b81019080803573ffffffffffffffffffffffffffffffffffffffff169060200190929190803590602001909291905050506136d9565b005b3480156109b657600080fd5b50610a19600480360360408110156109cd57600080fd5b81019080803573ffffffffffffffffffffffffffffffffffffffff169060200190929190803573ffffffffffffffffffffffffffffffffffffffff1690602001909291905050506138ae565b005b348015610a2757600080fd5b50610a7460048036036040811015610a3e57600080fd5b81019080803573ffffffffffffffffffffffffffffffffffffffff1690602001909291908035906020019092919050505061407f565b005b348015610a8257600080fd5b50610ac560048036036020811015610a9957600080fd5b81019080803573ffffffffffffffffffffffffffffffffffffffff1690602001909291905050506142c1565b005b348015610ad357600080fd5b50610adc6144a9565b6040518080602001828103825283818151815260200191508051906020019060200280838360005b83811015610b1f578082015181840152602081019050610b04565b505050509050019250505060405180910390f35b348015610b3f57600080fd5b50610ba260048036036040811015610b5657600080fd5b81019080803573ffffffffffffffffffffffffffffffffffffffff169060200190929190803573ffffffffffffffffffffffffffffffffffffffff169060200190929190505050614537565b005b348015610bb057600080fd5b50610bf360048036036020811015610bc757600080fd5b81019080803573ffffffffffffffffffffffffffffffffffffffff169060200190929190505050614656565b005b348015610c0157600080fd5b50610c4460048036036020811015610c1857600080fd5b81019080803573ffffffffffffffffffffffffffffffffffffffff1690602001909291905050506147a6565b005b348015610c5257600080fd5b50610c9560048036036020811015610c6957600080fd5b81019080803573ffffffffffffffffffffffffffffffffffffffff169060200190929190505050614908565b604051808273ffffffffffffffffffffffffffffffffffffffff1673ffffffffffffffffffffffffffffffffffffffff16815260200191505060405180910390f35b348015610ce357600080fd5b50610d2660048036036020811015610cfa57600080fd5b81019080803573ffffffffffffffffffffffffffffffffffffffff169060200190929190505050614a38565b005b80600760008273ffffffffffffffffffffffffffffffffffffffff1673ffffffffffffffffffffffffffffffffffffffff16815260200190815260200160002060000160159054906101000a900460ff161515610ded576040517f08c379a000000000000000000000000000000000000000000000000000000000815260040180806020018281038252600f8152602001807f446f6e6f72206e6f74206578697374000000000000000000000000000000000081525060200191505060405180910390fd5b60008090505b600380549050811015610eb7578273ffffffffffffffffffffffffffffffffffffffff16600382815481101515610e2657fe5b9060005260206000200160009054906101000a900473ffffffffffffffffffffffffffffffffffffffff1673ffffffffffffffffffffffffffffffffffffffff161415610eaa57600381815481101515610e7c57fe5b9060005260206000200160006101000a81549073ffffffffffffffffffffffffffffffffffffffff02191690555b8080600101915050610df3565b50600760008373ffffffffffffffffffffffffffffffffffffffff1673ffffffffffffffffffffffffffffffffffffffff168152602001908152602001600020600080820160006101000a81549073ffffffffffffffffffffffffffffffffffffffff02191690556000820160146101000a81549060ff02191690556000820160156101000a81549060ff02191690556000820160166101000a81549060ff02191690556000820160176101000a81549060ff0219169055600182016000905550505050565b6060600380548060200260200160405190810160405280929190818152602001828054801561100157602002820191906000526020600020905b8160009054906101000a900473ffffffffffffffffffffffffffffffffffffffff1673ffffffffffffffffffffffffffffffffffffffff1681526020019060010190808311610fb7575b5050505050905090565b80600660008273ffffffffffffffffffffffffffffffffffffffff1673ffffffffffffffffffffffffffffffffffffffff16815260200190815260200160002060000160159054906101000a900460ff161515156110d1576040517f08c379a00000000000000000000000000000000000000000000000000000000081526004018080602001828103825260138152602001807f416c726561647920616464656420646f6e6f720000000000000000000000000081525060200191505060405180910390fd5b60c0604051908101604052808373ffffffffffffffffffffffffffffffffffffffff1681526020016000151581526020016001151581526020016000151581526020016001151581526020016001815250600660008473ffffffffffffffffffffffffffffffffffffffff1673ffffffffffffffffffffffffffffffffffffffff16815260200190815260200160002060008201518160000160006101000a81548173ffffffffffffffffffffffffffffffffffffffff021916908373ffffffffffffffffffffffffffffffffffffffff16021790555060208201518160000160146101000a81548160ff02191690831515021790555060408201518160000160156101000a81548160ff02191690831515021790555060608201518160000160166101000a81548160ff02191690831515021790555060808201518160000160176101000a81548160ff02191690831515021790555060a0820151816001015590505060028290806001815401808255809150509060018203906000526020600020016000909192909190916101000a81548173ffffffffffffffffffffffffffffffffffffffff021916908373ffffffffffffffffffffffffffffffffffffffff160217905550505050565b60003373ffffffffffffffffffffffffffffffffffffffff166000809054906101000a900473ffffffffffffffffffffffffffffffffffffffff1673ffffffffffffffffffffffffffffffffffffffff16141515611365576040517f08c379a00000000000000000000000000000000000000000000000000000000081526004018080602001828103825260178152602001807f596f757220617265206e6f7420617574686f72697a656400000000000000000081525060200191505060405180910390fd5b81600560008273ffffffffffffffffffffffffffffffffffffffff1673ffffffffffffffffffffffffffffffffffffffff16815260200190815260200160002060000160149054906101000a900460ff16151561142a576040517f08c379a00000000000000000000000000000000000000000000000000000000081526004018080602001828103825260128152602001807f5265636965766572206e6f74206578697374000000000000000000000000000081525060200191505060405180910390fd5b600560008473ffffffffffffffffffffffffffffffffffffffff1673ffffffffffffffffffffffffffffffffffffffff16815260200190815260200160002060010154915050919050565b81600660008273ffffffffffffffffffffffffffffffffffffffff1673ffffffffffffffffffffffffffffffffffffffff16815260200190815260200160002060000160159054906101000a900460ff16151561153a576040517f08c379a000000000000000000000000000000000000000000000000000000000815260040180806020018281038252600f8152602001807f446f6e6f72206e6f74206578697374000000000000000000000000000000000081525060200191505060405180910390fd5b6115438261100b565b61154c836125a3565b505050565b80600760008273ffffffffffffffffffffffffffffffffffffffff1673ffffffffffffffffffffffffffffffffffffffff16815260200190815260200160002060000160159054906101000a900460ff16151515611617576040517f08c379a00000000000000000000000000000000000000000000000000000000081526004018080602001828103825260138152602001807f416c726561647920616464656420646f6e6f720000000000000000000000000081525060200191505060405180910390fd5b60c0604051908101604052808373ffffffffffffffffffffffffffffffffffffffff1681526020016000151581526020016001151581526020016000151581526020016000151581526020016002815250600760008473ffffffffffffffffffffffffffffffffffffffff1673ffffffffffffffffffffffffffffffffffffffff16815260200190815260200160002060008201518160000160006101000a81548173ffffffffffffffffffffffffffffffffffffffff021916908373ffffffffffffffffffffffffffffffffffffffff16021790555060208201518160000160146101000a81548160ff02191690831515021790555060408201518160000160156101000a81548160ff02191690831515021790555060608201518160000160166101000a81548160ff02191690831515021790555060808201518160000160176101000a81548160ff02191690831515021790555060a0820151816001015590505060038290806001815401808255809150509060018203906000526020600020016000909192909190916101000a81548173ffffffffffffffffffffffffffffffffffffffff021916908373ffffffffffffffffffffffffffffffffffffffff160217905550505050565b80600760008273ffffffffffffffffffffffffffffffffffffffff1673ffffffffffffffffffffffffffffffffffffffff16815260200190815260200160002060000160159054906101000a900460ff1615156118aa576040517f08c379a000000000000000000000000000000000000000000000000000000000815260040180806020018281038252600f8152602001807f446f6e6f72206e6f74206578697374000000000000000000000000000000000081525060200191505060405180910390fd5b81600760008273ffffffffffffffffffffffffffffffffffffffff1673ffffffffffffffffffffffffffffffffffffffff16815260200190815260200160002060000160149054906101000a900460ff161515611995576040517f08c379a00000000000000000000000000000000000000000000000000000000081526004018080602001828103825260228152602001807f52656c6174697665206f6620646f6e6f72206469646e277420617070726f766581526020017f642e00000000000000000000000000000000000000000000000000000000000081525060400191505060405180910390fd5b6000600760008573ffffffffffffffffffffffffffffffffffffffff1673ffffffffffffffffffffffffffffffffffffffff16815260200190815260200160002060000160146101000a81548160ff021916908315150217905550505050565b3373ffffffffffffffffffffffffffffffffffffffff166000809054906101000a900473ffffffffffffffffffffffffffffffffffffffff1673ffffffffffffffffffffffffffffffffffffffff16141515611ab9576040517f08c379a00000000000000000000000000000000000000000000000000000000081526004018080602001828103825260178152602001807f596f757220617265206e6f7420617574686f72697a656400000000000000000081525060200191505060405180910390fd5b80600560008273ffffffffffffffffffffffffffffffffffffffff1673ffffffffffffffffffffffffffffffffffffffff16815260200190815260200160002060000160149054906101000a900460ff161515611b7e576040517f08c379a00000000000000000000000000000000000000000000000000000000081526004018080602001828103825260128152602001807f5265636965766572206e6f74206578697374000000000000000000000000000081525060200191505060405180910390fd5b6001600560008473ffffffffffffffffffffffffffffffffffffffff1673ffffffffffffffffffffffffffffffffffffffff16815260200190815260200160002060000160156101000a81548160ff0219169083151502179055505050565b80600660008273ffffffffffffffffffffffffffffffffffffffff1673ffffffffffffffffffffffffffffffffffffffff16815260200190815260200160002060000160159054906101000a900460ff161515611ca2576040517f08c379a000000000000000000000000000000000000000000000000000000000815260040180806020018281038252600f8152602001807f446f6e6f72206e6f74206578697374000000000000000000000000000000000081525060200191505060405180910390fd5b6001600660008473ffffffffffffffffffffffffffffffffffffffff1673ffffffffffffffffffffffffffffffffffffffff16815260200190815260200160002060000160166101000a81548160ff0219169083151502179055505050565b80600560008273ffffffffffffffffffffffffffffffffffffffff1673ffffffffffffffffffffffffffffffffffffffff16815260200190815260200160002060000160149054906101000a900460ff161515611dc6576040517f08c379a00000000000000000000000000000000000000000000000000000000081526004018080602001828103825260128152602001807f5265636965766572206e6f74206578697374000000000000000000000000000081525060200191505060405180910390fd5b6001600560008473ffffffffffffffffffffffffffffffffffffffff1673ffffffffffffffffffffffffffffffffffffffff16815260200190815260200160002060000160156101000a81548160ff0219169083151502179055505050565b80600660008273ffffffffffffffffffffffffffffffffffffffff1673ffffffffffffffffffffffffffffffffffffffff16815260200190815260200160002060000160159054906101000a900460ff161515611eea576040517f08c379a000000000000000000000000000000000000000000000000000000000815260040180806020018281038252600f8152602001807f446f6e6f72206e6f74206578697374000000000000000000000000000000000081525060200191505060405180910390fd5b81600660008273ffffffffffffffffffffffffffffffffffffffff1673ffffffffffffffffffffffffffffffffffffffff16815260200190815260200160002060000160149054906101000a900460ff161515611faf576040517f08c379a00000000000000000000000000000000000000000000000000000000081526004018080602001828103825260168152602001807f446f6e6f72206469646e277420617070726f7665642e0000000000000000000081525060200191505060405180910390fd5b6000600660008573ffffffffffffffffffffffffffffffffffffffff1673ffffffffffffffffffffffffffffffffffffffff16815260200190815260200160002060000160146101000a81548160ff021916908315150217905550505050565b81600760008273ffffffffffffffffffffffffffffffffffffffff1673ffffffffffffffffffffffffffffffffffffffff16815260200190815260200160002060000160159054906101000a900460ff1615156120d4576040517f08c379a000000000000000000000000000000000000000000000000000000000815260040180806020018281038252600f8152602001807f446f6e6f72206e6f74206578697374000000000000000000000000000000000081525060200191505060405180910390fd5b6120dd83610d28565b6120e682611551565b505050565b3373ffffffffffffffffffffffffffffffffffffffff166000809054906101000a900473ffffffffffffffffffffffffffffffffffffffff1673ffffffffffffffffffffffffffffffffffffffff161415156121af576040517f08c379a00000000000000000000000000000000000000000000000000000000081526004018080602001828103825260178152602001807f596f757220617265206e6f7420617574686f72697a656400000000000000000081525060200191505060405180910390fd5b80600660008273ffffffffffffffffffffffffffffffffffffffff1673ffffffffffffffffffffffffffffffffffffffff16815260200190815260200160002060000160159054906101000a900460ff161515612274576040517f08c379a000000000000000000000000000000000000000000000000000000000815260040180806020018281038252600f8152602001807f446f6e6f72206e6f74206578697374000000000000000000000000000000000081525060200191505060405180910390fd5b6001600660008473ffffffffffffffffffffffffffffffffffffffff1673ffffffffffffffffffffffffffffffffffffffff16815260200190815260200160002060000160166101000a81548160ff0219169083151502179055505050565b600081600760008273ffffffffffffffffffffffffffffffffffffffff1673ffffffffffffffffffffffffffffffffffffffff16815260200190815260200160002060000160159054906101000a900460ff16151561239a576040517f08c379a000000000000000000000000000000000000000000000000000000000815260040180806020018281038252600f8152602001807f446f6e6f72206e6f74206578697374000000000000000000000000000000000081525060200191505060405180910390fd5b600760008473ffffffffffffffffffffffffffffffffffffffff1673ffffffffffffffffffffffffffffffffffffffff16815260200190815260200160002060010154915050919050565b6060600180548060200260200160405190810160405280929190818152602001828054801561246957602002820191906000526020600020905b8160009054906101000a900473ffffffffffffffffffffffffffffffffffffffff1673ffffffffffffffffffffffffffffffffffffffff168152602001906001019080831161241f575b5050505050905090565b60008060009054906101000a900473ffffffffffffffffffffffffffffffffffffffff16905090565b3373ffffffffffffffffffffffffffffffffffffffff166000809054906101000a900473ffffffffffffffffffffffffffffffffffffffff1673ffffffffffffffffffffffffffffffffffffffff16141515612560576040517f08c379a00000000000000000000000000000000000000000000000000000000081526004018080602001828103825260178152602001807f596f757220617265206e6f7420617574686f72697a656400000000000000000081525060200191505060405180910390fd5b806000806101000a81548173ffffffffffffffffffffffffffffffffffffffff021916908373ffffffffffffffffffffffffffffffffffffffff16021790555050565b80600660008273ffffffffffffffffffffffffffffffffffffffff1673ffffffffffffffffffffffffffffffffffffffff16815260200190815260200160002060000160159054906101000a900460ff161515612668576040517f08c379a000000000000000000000000000000000000000000000000000000000815260040180806020018281038252600f8152602001807f446f6e6f72206e6f74206578697374000000000000000000000000000000000081525060200191505060405180910390fd5b60008090505b600280549050811015612732578273ffffffffffffffffffffffffffffffffffffffff166002828154811015156126a157fe5b9060005260206000200160009054906101000a900473ffffffffffffffffffffffffffffffffffffffff1673ffffffffffffffffffffffffffffffffffffffff161415612725576002818154811015156126f757fe5b9060005260206000200160006101000a81549073ffffffffffffffffffffffffffffffffffffffff02191690555b808060010191505061266e565b50600660008373ffffffffffffffffffffffffffffffffffffffff1673ffffffffffffffffffffffffffffffffffffffff168152602001908152602001600020600080820160006101000a81549073ffffffffffffffffffffffffffffffffffffffff02191690556000820160146101000a81549060ff02191690556000820160156101000a81549060ff02191690556000820160166101000a81549060ff02191690556000820160176101000a81549060ff0219169055600182016000905550505050565b81600960008273ffffffffffffffffffffffffffffffffffffffff1673ffffffffffffffffffffffffffffffffffffffff16815260200190815260200160002060010160149054906101000a900460ff161515156128be576040517f08c379a00000000000000000000000000000000000000000000000000000000081526004018080602001828103825260178152602001807f416c726561647920646f6e65205472616e73706c616e7400000000000000000081525060200191505060405180910390fd5b3373ffffffffffffffffffffffffffffffffffffffff166000809054906101000a900473ffffffffffffffffffffffffffffffffffffffff1673ffffffffffffffffffffffffffffffffffffffff16141515612982576040517f08c379a00000000000000000000000000000000000000000000000000000000081526004018080602001828103825260178152602001807f596f757220617265206e6f7420617574686f72697a656400000000000000000081525060200191505060405180910390fd5b82600560008273ffffffffffffffffffffffffffffffffffffffff1673ffffffffffffffffffffffffffffffffffffffff16815260200190815260200160002060000160149054906101000a900460ff161515612a47576040517f08c379a00000000000000000000000000000000000000000000000000000000081526004018080602001828103825260128152602001807f5265636965766572206e6f74206578697374000000000000000000000000000081525060200191505060405180910390fd5b82600760008273ffffffffffffffffffffffffffffffffffffffff1673ffffffffffffffffffffffffffffffffffffffff16815260200190815260200160002060000160159054906101000a900460ff161515612b0c576040517f08c379a000000000000000000000000000000000000000000000000000000000815260040180806020018281038252600f8152602001807f446f6e6f72206e6f74206578697374000000000000000000000000000000000081525060200191505060405180910390fd5b83600760008273ffffffffffffffffffffffffffffffffffffffff1673ffffffffffffffffffffffffffffffffffffffff16815260200190815260200160002060000160149054906101000a900460ff161515612bf7576040517f08c379a00000000000000000000000000000000000000000000000000000000081526004018080602001828103825260228152602001807f52656c6174697665206f6620646f6e6f72206469646e277420617070726f766581526020017f642e00000000000000000000000000000000000000000000000000000000000081525060400191505060405180910390fd5b85600560008273ffffffffffffffffffffffffffffffffffffffff1673ffffffffffffffffffffffffffffffffffffffff16815260200190815260200160002060000160159054906101000a900460ff16151515612cbd576040517f08c379a00000000000000000000000000000000000000000000000000000000081526004018080602001828103825260158152602001807f4e6f742076657269666965642062792041646d696e000000000000000000000081525060200191505060405180910390fd5b85600760008273ffffffffffffffffffffffffffffffffffffffff1673ffffffffffffffffffffffffffffffffffffffff16815260200190815260200160002060000160169054906101000a900460ff16151515612d83576040517f08c379a00000000000000000000000000000000000000000000000000000000081526004018080602001828103825260158152602001807f4e6f742076657269666965642062792041646d696e000000000000000000000081525060200191505060405180910390fd5b6000600760008973ffffffffffffffffffffffffffffffffffffffff1673ffffffffffffffffffffffffffffffffffffffff16815260200190815260200160002060010154111561305c576060604051908101604052808973ffffffffffffffffffffffffffffffffffffffff1681526020018873ffffffffffffffffffffffffffffffffffffffff16815260200160011515815250600960008a73ffffffffffffffffffffffffffffffffffffffff1673ffffffffffffffffffffffffffffffffffffffff16815260200190815260200160002060008201518160000160006101000a81548173ffffffffffffffffffffffffffffffffffffffff021916908373ffffffffffffffffffffffffffffffffffffffff16021790555060208201518160010160006101000a81548173ffffffffffffffffffffffffffffffffffffffff021916908373ffffffffffffffffffffffffffffffffffffffff16021790555060408201518160010160146101000a81548160ff021916908315150217905550905050600760008873ffffffffffffffffffffffffffffffffffffffff1673ffffffffffffffffffffffffffffffffffffffff168152602001908152602001600020600101600081548092919060019003919050555060048890806001815401808255809150509060018203906000526020600020016000909192909190916101000a81548173ffffffffffffffffffffffffffffffffffffffff021916908373ffffffffffffffffffffffffffffffffffffffff16021790555050600860008973ffffffffffffffffffffffffffffffffffffffff1673ffffffffffffffffffffffffffffffffffffffff168152602001908152602001600020600080820160006101000a81549073ffffffffffffffffffffffffffffffffffffffff02191690556000820160146101000a81549060ff02191690556000820160156101000a81549060ff0219169055600182016000905550505b6000600760008973ffffffffffffffffffffffffffffffffffffffff1673ffffffffffffffffffffffffffffffffffffffff16815260200190815260200160002060010154141561316957600760008873ffffffffffffffffffffffffffffffffffffffff1673ffffffffffffffffffffffffffffffffffffffff168152602001908152602001600020600080820160006101000a81549073ffffffffffffffffffffffffffffffffffffffff02191690556000820160146101000a81549060ff02191690556000820160156101000a81549060ff02191690556000820160166101000a81549060ff02191690556000820160176101000a81549060ff0219169055600182016000905550505b5050505050505050565b80600760008273ffffffffffffffffffffffffffffffffffffffff1673ffffffffffffffffffffffffffffffffffffffff16815260200190815260200160002060000160159054906101000a900460ff161515613238576040517f08c379a000000000000000000000000000000000000000000000000000000000815260040180806020018281038252600f8152602001807f446f6e6f72206e6f74206578697374000000000000000000000000000000000081525060200191505060405180910390fd5b6001600760008473ffffffffffffffffffffffffffffffffffffffff1673ffffffffffffffffffffffffffffffffffffffff16815260200190815260200160002060000160166101000a81548160ff0219169083151502179055505050565b80600560008273ffffffffffffffffffffffffffffffffffffffff1673ffffffffffffffffffffffffffffffffffffffff16815260200190815260200160002060000160149054906101000a900460ff16151561335c576040517f08c379a00000000000000000000000000000000000000000000000000000000081526004018080602001828103825260128152602001807f5265636965766572206e6f74206578697374000000000000000000000000000081525060200191505060405180910390fd5b600560008373ffffffffffffffffffffffffffffffffffffffff1673ffffffffffffffffffffffffffffffffffffffff168152602001908152602001600020600860008473ffffffffffffffffffffffffffffffffffffffff1673ffffffffffffffffffffffffffffffffffffffff1681526020019081526020016000206000820160009054906101000a900473ffffffffffffffffffffffffffffffffffffffff168160000160006101000a81548173ffffffffffffffffffffffffffffffffffffffff021916908373ffffffffffffffffffffffffffffffffffffffff1602179055506000820160149054906101000a900460ff168160000160146101000a81548160ff0219169083151502179055506000820160159054906101000a900460ff168160000160156101000a81548160ff021916908315150217905550600182015481600101559050505050565b80600560008273ffffffffffffffffffffffffffffffffffffffff1673ffffffffffffffffffffffffffffffffffffffff16815260200190815260200160002060000160149054906101000a900460ff161515613571576040517f08c379a00000000000000000000000000000000000000000000000000000000081526004018080602001828103825260128152602001807f5265636965766572206e6f74206578697374000000000000000000000000000081525060200191505060405180910390fd5b60008090505b60018054905081101561363b578273ffffffffffffffffffffffffffffffffffffffff166001828154811015156135aa57fe5b9060005260206000200160009054906101000a900473ffffffffffffffffffffffffffffffffffffffff1673ffffffffffffffffffffffffffffffffffffffff16141561362e5760018181548110151561360057fe5b9060005260206000200160006101000a81549073ffffffffffffffffffffffffffffffffffffffff02191690555b8080600101915050613577565b50600560008373ffffffffffffffffffffffffffffffffffffffff1673ffffffffffffffffffffffffffffffffffffffff168152602001908152602001600020600080820160006101000a81549073ffffffffffffffffffffffffffffffffffffffff02191690556000820160146101000a81549060ff02191690556000820160156101000a81549060ff0219169055600182016000905550505050565b3373ffffffffffffffffffffffffffffffffffffffff166000809054906101000a900473ffffffffffffffffffffffffffffffffffffffff1673ffffffffffffffffffffffffffffffffffffffff1614151561379d576040517f08c379a00000000000000000000000000000000000000000000000000000000081526004018080602001828103825260178152602001807f596f757220617265206e6f7420617574686f72697a656400000000000000000081525060200191505060405180910390fd5b81600560008273ffffffffffffffffffffffffffffffffffffffff1673ffffffffffffffffffffffffffffffffffffffff16815260200190815260200160002060000160149054906101000a900460ff161515613862576040517f08c379a00000000000000000000000000000000000000000000000000000000081526004018080602001828103825260128152602001807f5265636965766572206e6f74206578697374000000000000000000000000000081525060200191505060405180910390fd5b81600560008573ffffffffffffffffffffffffffffffffffffffff1673ffffffffffffffffffffffffffffffffffffffff16815260200190815260200160002060010181905550505050565b81600960008273ffffffffffffffffffffffffffffffffffffffff1673ffffffffffffffffffffffffffffffffffffffff16815260200190815260200160002060010160149054906101000a900460ff16151515613974576040517f08c379a00000000000000000000000000000000000000000000000000000000081526004018080602001828103825260178152602001807f416c726561647920646f6e65205472616e73706c616e7400000000000000000081525060200191505060405180910390fd5b3373ffffffffffffffffffffffffffffffffffffffff166000809054906101000a900473ffffffffffffffffffffffffffffffffffffffff1673ffffffffffffffffffffffffffffffffffffffff16141515613a38576040517f08c379a00000000000000000000000000000000000000000000000000000000081526004018080602001828103825260178152602001807f596f757220617265206e6f7420617574686f72697a656400000000000000000081525060200191505060405180910390fd5b82600560008273ffffffffffffffffffffffffffffffffffffffff1673ffffffffffffffffffffffffffffffffffffffff16815260200190815260200160002060000160149054906101000a900460ff161515613afd576040517f08c379a00000000000000000000000000000000000000000000000000000000081526004018080602001828103825260128152602001807f5265636965766572206e6f74206578697374000000000000000000000000000081525060200191505060405180910390fd5b82600660008273ffffffffffffffffffffffffffffffffffffffff1673ffffffffffffffffffffffffffffffffffffffff16815260200190815260200160002060000160159054906101000a900460ff161515613bc2576040517f08c379a000000000000000000000000000000000000000000000000000000000815260040180806020018281038252600f8152602001807f446f6e6f72206e6f74206578697374000000000000000000000000000000000081525060200191505060405180910390fd5b83600660008273ffffffffffffffffffffffffffffffffffffffff1673ffffffffffffffffffffffffffffffffffffffff16815260200190815260200160002060000160149054906101000a900460ff161515613c87576040517f08c379a00000000000000000000000000000000000000000000000000000000081526004018080602001828103825260168152602001807f446f6e6f72206469646e277420617070726f7665642e0000000000000000000081525060200191505060405180910390fd5b85600560008273ffffffffffffffffffffffffffffffffffffffff1673ffffffffffffffffffffffffffffffffffffffff16815260200190815260200160002060000160159054906101000a900460ff16151515613d4d576040517f08c379a00000000000000000000000000000000000000000000000000000000081526004018080602001828103825260158152602001807f4e6f742076657269666965642062792041646d696e000000000000000000000081525060200191505060405180910390fd5b85600660008273ffffffffffffffffffffffffffffffffffffffff1673ffffffffffffffffffffffffffffffffffffffff16815260200190815260200160002060000160169054906101000a900460ff16151515613e13576040517f08c379a00000000000000000000000000000000000000000000000000000000081526004018080602001828103825260158152602001807f4e6f742076657269666965642062792041646d696e000000000000000000000081525060200191505060405180910390fd5b6060604051908101604052808973ffffffffffffffffffffffffffffffffffffffff1681526020018873ffffffffffffffffffffffffffffffffffffffff16815260200160011515815250600960008a73ffffffffffffffffffffffffffffffffffffffff1673ffffffffffffffffffffffffffffffffffffffff16815260200190815260200160002060008201518160000160006101000a81548173ffffffffffffffffffffffffffffffffffffffff021916908373ffffffffffffffffffffffffffffffffffffffff16021790555060208201518160010160006101000a81548173ffffffffffffffffffffffffffffffffffffffff021916908373ffffffffffffffffffffffffffffffffffffffff16021790555060408201518160010160146101000a81548160ff02191690831515021790555090505060048890806001815401808255809150509060018203906000526020600020016000909192909190916101000a81548173ffffffffffffffffffffffffffffffffffffffff021916908373ffffffffffffffffffffffffffffffffffffffff16021790555050600660008873ffffffffffffffffffffffffffffffffffffffff1673ffffffffffffffffffffffffffffffffffffffff168152602001908152602001600020600080820160006101000a81549073ffffffffffffffffffffffffffffffffffffffff02191690556000820160146101000a81549060ff02191690556000820160156101000a81549060ff02191690556000820160166101000a81549060ff02191690556000820160176101000a81549060ff0219169055600182016000905550505050505050505050565b81600560008273ffffffffffffffffffffffffffffffffffffffff1673ffffffffffffffffffffffffffffffffffffffff16815260200190815260200160002060000160149054906101000a900460ff16151515614145576040517f08c379a00000000000000000000000000000000000000000000000000000000081526004018080602001828103825260168152602001807f416c72656164792061646465642072656369657665720000000000000000000081525060200191505060405180910390fd5b6080604051908101604052808473ffffffffffffffffffffffffffffffffffffffff16815260200160011515815260200160001515815260200183815250600560008573ffffffffffffffffffffffffffffffffffffffff1673ffffffffffffffffffffffffffffffffffffffff16815260200190815260200160002060008201518160000160006101000a81548173ffffffffffffffffffffffffffffffffffffffff021916908373ffffffffffffffffffffffffffffffffffffffff16021790555060208201518160000160146101000a81548160ff02191690831515021790555060408201518160000160156101000a81548160ff0219169083151502179055506060820151816001015590505060018390806001815401808255809150509060018203906000526020600020016000909192909190916101000a81548173ffffffffffffffffffffffffffffffffffffffff021916908373ffffffffffffffffffffffffffffffffffffffff16021790555050505050565b3373ffffffffffffffffffffffffffffffffffffffff166000809054906101000a900473ffffffffffffffffffffffffffffffffffffffff1673ffffffffffffffffffffffffffffffffffffffff16141515614385576040517f08c379a00000000000000000000000000000000000000000000000000000000081526004018080602001828103825260178152602001807f596f757220617265206e6f7420617574686f72697a656400000000000000000081525060200191505060405180910390fd5b80600760008273ffffffffffffffffffffffffffffffffffffffff1673ffffffffffffffffffffffffffffffffffffffff16815260200190815260200160002060000160159054906101000a900460ff16151561444a576040517f08c379a000000000000000000000000000000000000000000000000000000000815260040180806020018281038252600f8152602001807f446f6e6f72206e6f74206578697374000000000000000000000000000000000081525060200191505060405180910390fd5b6001600760008473ffffffffffffffffffffffffffffffffffffffff1673ffffffffffffffffffffffffffffffffffffffff16815260200190815260200160002060000160166101000a81548160ff0219169083151502179055505050565b6060600280548060200260200160405190810160405280929190818152602001828054801561452d57602002820191906000526020600020905b8160009054906101000a900473ffffffffffffffffffffffffffffffffffffffff1673ffffffffffffffffffffffffffffffffffffffff16815260200190600101908083116144e3575b5050505050905090565b81600560008273ffffffffffffffffffffffffffffffffffffffff1673ffffffffffffffffffffffffffffffffffffffff16815260200190815260200160002060000160149054906101000a900460ff1615156145fc576040517f08c379a00000000000000000000000000000000000000000000000000000000081526004018080602001828103825260128152602001807f5265636965766572206e6f74206578697374000000000000000000000000000081525060200191505060405180910390fd5b61464882600560008673ffffffffffffffffffffffffffffffffffffffff1673ffffffffffffffffffffffffffffffffffffffff1681526020019081526020016000206001015461407f565b614651836134ac565b505050565b80600760008273ffffffffffffffffffffffffffffffffffffffff1673ffffffffffffffffffffffffffffffffffffffff16815260200190815260200160002060000160159054906101000a900460ff16151561471b576040517f08c379a000000000000000000000000000000000000000000000000000000000815260040180806020018281038252600f8152602001807f446f6e6f72206e6f74206578697374000000000000000000000000000000000081525060200191505060405180910390fd5b6001600760008473ffffffffffffffffffffffffffffffffffffffff1673ffffffffffffffffffffffffffffffffffffffff16815260200190815260200160002060000160146101000a81548160ff0219169083151502179055507fb97ea88899dd08b6ffdec3d991bcb6205f535ca4c1e212a0b350bfdb3ab11d8f60405160405180910390a15050565b80600560008273ffffffffffffffffffffffffffffffffffffffff1673ffffffffffffffffffffffffffffffffffffffff16815260200190815260200160002060000160149054906101000a900460ff16151561486b576040517f08c379a00000000000000000000000000000000000000000000000000000000081526004018080602001828103825260128152602001807f5265636965766572206e6f74206578697374000000000000000000000000000081525060200191505060405180910390fd5b600860008373ffffffffffffffffffffffffffffffffffffffff1673ffffffffffffffffffffffffffffffffffffffff168152602001908152602001600020600080820160006101000a81549073ffffffffffffffffffffffffffffffffffffffff02191690556000820160146101000a81549060ff02191690556000820160156101000a81549060ff0219169055600182016000905550505050565b60003373ffffffffffffffffffffffffffffffffffffffff166000809054906101000a900473ffffffffffffffffffffffffffffffffffffffff1673ffffffffffffffffffffffffffffffffffffffff161415156149ce576040517f08c379a00000000000000000000000000000000000000000000000000000000081526004018080602001828103825260178152602001807f596f757220617265206e6f7420617574686f72697a656400000000000000000081525060200191505060405180910390fd5b600960008373ffffffffffffffffffffffffffffffffffffffff1673ffffffffffffffffffffffffffffffffffffffff16815260200190815260200160002060010160009054906101000a900473ffffffffffffffffffffffffffffffffffffffff169050919050565b80600660008273ffffffffffffffffffffffffffffffffffffffff1673ffffffffffffffffffffffffffffffffffffffff16815260200190815260200160002060000160159054906101000a900460ff161515614afd576040517f08c379a000000000000000000000000000000000000000000000000000000000815260040180806020018281038252600f8152602001807f446f6e6f72206e6f74206578697374000000000000000000000000000000000081525060200191505060405180910390fd5b6001600660008473ffffffffffffffffffffffffffffffffffffffff1673ffffffffffffffffffffffffffffffffffffffff16815260200190815260200160002060000160146101000a81548160ff021916908315150217905550505056fea165627a7a72305820dfea8355f08e5471d112acef7d31a6a5595cdd037321aabe0625b86eaaeafc020029",
  "source": "// Solidity Version\npragma solidity >=0.4.26;\n\n// Contract dOrgan\ncontract dOrgan{\n\n    // Events\n    event donorDead();\n\n    // Structs\n    struct Reciever{\n        address patient;\n        bool exist;\n        bool verify;\n        uint priority;\n    }\n\n    struct Donor{\n        address donor;\n        bool approve;\n        bool exist;\n        bool verify;\n        bool live;\n        uint kidnies;\n    }\n\n    struct Transplant{\n        address reciever;\n        address donor;\n        bool exist;\n    }\n\n    // Global Variables\n    address admin;\n    address[] recieverArr;\n    address[] liveDonorArr;\n    address[] deadDonorArr;\n    address[] transplantArr;\n\n    // Mappings\n    mapping(address => Reciever) recievers;\n    mapping(address => Donor) liveDonors;\n    mapping(address => Donor) deadDonors;\n    mapping(address => Reciever) waitlist;\n    mapping(address => Transplant) transplants;\n\n    // Modifiers\n    modifier verifyAdmin(){\n        require(admin == msg.sender,\"Your are not authorized\");\n        _;\n    }\n\n    modifier checkTransplantedExist(address addr){\n        require(!transplants[addr].exist,\"Already done Transplant\");\n        _;\n    }\n\n    modifier checkVerifyReciever(address addr){\n        require(!recievers[addr].verify,\"Not verified by Admin\");\n        _;\n    }\n\n    modifier checkVerifyLiveDonor(address addr){\n        require(!liveDonors[addr].verify,\"Not verified by Admin\");\n        _;\n    }\n\n    modifier checkVerifyDeadDonor(address addr){\n        require(!deadDonors[addr].verify,\"Not verified by Admin\");\n        _;\n    }\n\n    modifier checkRecieverExist(address addr){\n        require(!recievers[addr].exist,\"Already added reciever\");\n        _;\n    }\n\n    modifier checkLiveDonorExist(address addr){\n        require(!liveDonors[addr].exist,\"Already added donor\");\n        _;\n    }\n\n    modifier checkDeadDonorExist(address addr){\n        require(!deadDonors[addr].exist,\"Already added donor\");\n        _;\n    }\n\n    modifier verifyTransplantExist(address addr){\n        require(transplants[addr].exist,\"Transplant not exist\");\n        _;\n    }\n\n    modifier verifyRecieverExist(address addr){\n        require(recievers[addr].exist,\"Reciever not exist\");\n        _;\n    }\n\n    modifier verifyDeadDonorExist(address addr){\n        require(deadDonors[addr].exist,\"Donor not exist\");\n        _;\n    }\n\n    modifier verifyLiveDonorExist(address addr){\n        require(liveDonors[addr].exist,\"Donor not exist\");\n        _;\n    }\n\n    modifier approveLiveDonor(address liveDonor1){\n        require(liveDonors[liveDonor1].approve,\"Donor didn't approved.\");\n        _;\n    }\n\n    modifier approveDeadDonor(address deadDonor1){\n        require(deadDonors[deadDonor1].approve,\"Relative of donor didn't approved.\");\n        _;\n    }\n\n    // Constructor\n    constructor() public{\n        admin = msg.sender;\n    }\n\n    //Admin Getters & Setters\n    function getAdmin() public view returns(address){\n        return admin;\n    }\n\n    function setAdmin(address admin1) public verifyAdmin{\n        admin = admin1;\n    }\n\n    /*\n    Suppose a Patient detected by ckd stage 5 then, it requires immediate Transplant\n    so, he has two ways, first to go for the Live Donor(i.e. Relatives) or wait in the\n    waiting list (i.e. when some one is dead) to get someone's Kidney.\n    */\n\n    // Patient functions\n    function addReciever(address addr, uint priority1)public checkRecieverExist(addr){\n        recievers[addr] = Reciever(addr,true,false,priority1);\n        recieverArr.push(addr);\n    }\n\n    function getRecievers() public view returns(address[] memory){\n        return recieverArr;\n    }\n\n    function removeReciever(address addr) public verifyRecieverExist(addr){\n        for(uint i = 0; i<recieverArr.length;i++){\n            if(recieverArr[i] == addr) delete recieverArr[i];\n        }\n        delete recievers[addr];\n    }\n\n    function updateReciever(address oldAddr, address newAddr) public verifyRecieverExist(oldAddr){\n        addReciever(newAddr, recievers[oldAddr].priority);\n        removeReciever(oldAddr);\n    }\n\n    function addRecieverToWaitlist(address addr)public verifyRecieverExist(addr){\n        waitlist[addr] = recievers[addr];\n    }\n\n    function removeRecieverFromWaitlist(address addr)public verifyRecieverExist(addr){\n        delete waitlist[addr];\n    }\n\n    function getPriority(address addr)public view verifyAdmin verifyRecieverExist(addr) returns(uint){\n        return recievers[addr].priority;\n    }\n\n    function changePriority(address addr, uint priority1)public verifyAdmin verifyRecieverExist(addr){\n        recievers[addr].priority = priority1;\n    }\n\n    function verifyRecieverByAdmin(address addr)public verifyAdmin verifyRecieverExist(addr){\n        recievers[addr].verify = true;\n    }\n\n    function getVerificationRecieverByAdmin(address addr)public verifyRecieverExist(addr){\n        recievers[addr].verify = true;\n    }\n\n    /*\n    Suppose that patient opt for transplantation from a living donor(i.e. Relatives)\n    then the donor(person) has to approve that its Kidney is being transplanted.\n    */\n\n    // Live Donor Functions\n    function addLiveDonor(address addr) public checkLiveDonorExist(addr){\n        liveDonors[addr] = Donor(addr, false,true,false,true,1);\n        liveDonorArr.push(addr);\n    }\n\n    function getLiveDonors() public view returns(address[] memory){\n        return liveDonorArr;\n    }\n\n    function removeLiveDonor(address addr) public verifyLiveDonorExist(addr){\n        for(uint i = 0; i<liveDonorArr.length;i++){\n            if(liveDonorArr[i] == addr) delete liveDonorArr[i];\n        }\n        delete liveDonors[addr];\n    }\n\n    function updateLiveDonor(address oldAddr, address newAddr) public verifyLiveDonorExist(oldAddr){\n        addLiveDonor(newAddr);\n        removeLiveDonor(oldAddr);\n    }\n\n    function approveLiveTransplant(address addr)public verifyLiveDonorExist(addr){\n        liveDonors[addr].approve = true;\n    }\n\n    function removeLiveTransplantApproval(address addr)public verifyLiveDonorExist(addr) approveLiveDonor(addr){\n        liveDonors[addr].approve = false;\n    }\n\n    function verifyLiveDonorByAdmin(address addr)public verifyAdmin verifyLiveDonorExist(addr){\n        liveDonors[addr].verify = true;\n    }\n\n    function getVerificationLiveDonorByAdmin(address addr)public verifyLiveDonorExist(addr){\n        liveDonors[addr].verify = true;\n    }\n\n    /*\n    Suppose that patient opt for transplantation from a dead donor(i.e. a person who has died)\n    then the donor's relatives has to approve that its kidneies are being transplanted.\n    */\n\n    // Dead Donor Functions\n    function addDeadDonor(address addr) public checkDeadDonorExist(addr){\n        deadDonors[addr] = Donor(addr, false,true,false,false,2);\n        deadDonorArr.push(addr);\n    }\n\n    function getDeadDonors() public view returns(address[] memory){\n        return deadDonorArr;\n    }\n\n    function removeDeadDonor(address addr) public verifyDeadDonorExist(addr){\n        for(uint i = 0; i<deadDonorArr.length;i++){\n            if(deadDonorArr[i] == addr) delete deadDonorArr[i];\n        }\n        delete deadDonors[addr];\n    }\n\n    function updateDeadDonor(address oldAddr, address newAddr) public verifyDeadDonorExist(oldAddr){\n        removeDeadDonor(oldAddr);\n        addDeadDonor(newAddr);\n    }\n\n    /*\n    If approved then his kidneies go to the nemerous people in demmand of kidney in waitlist.\n    */\n\n    function approveDeadTransplant(address addr)public verifyDeadDonorExist(addr){\n        deadDonors[addr].approve = true;\n        emit donorDead(); // ML Predictions Here\n    }\n\n    function removeDeadTransplantApproval(address addr)public verifyDeadDonorExist(addr) approveDeadDonor(addr){\n        deadDonors[addr].approve = false;\n    }\n\n    function verifyDeadDonorByAdmin(address addr)public verifyAdmin verifyDeadDonorExist(addr){\n        deadDonors[addr].verify = true;\n    }\n\n    function getVerificationDeadDonorByAdmin(address addr)public verifyDeadDonorExist(addr){\n        deadDonors[addr].verify = true;\n    }\n\n    function getKidnies(address addr)public view verifyDeadDonorExist(addr) returns(uint){\n        return deadDonors[addr].kidnies;\n    }\n\n    /*\n    Final Transplant.\n    */\n\n    // Transplant functions\n    function transplantLiveDonor(address reciever1,address donor1) public checkTransplantedExist(reciever1) verifyAdmin verifyRecieverExist(reciever1) verifyLiveDonorExist(donor1) approveLiveDonor(donor1) checkVerifyReciever(reciever1) checkVerifyLiveDonor(donor1) {\n        transplants[reciever1] = Transplant(reciever1,donor1,true);\n        transplantArr.push(reciever1);\n        delete liveDonors[donor1];\n    }\n\n    function transplantDeadDonor(address reciever1,address donor1) public checkTransplantedExist(reciever1) verifyAdmin verifyRecieverExist(reciever1) verifyDeadDonorExist(donor1) approveDeadDonor(donor1) checkVerifyReciever(reciever1) checkVerifyDeadDonor(donor1) {\n        if(deadDonors[donor1].kidnies > 0){\n            transplants[reciever1] = Transplant(reciever1,donor1,true);\n            deadDonors[donor1].kidnies --;\n            transplantArr.push(reciever1);\n            delete waitlist[reciever1];\n        }\n        if(deadDonors[donor1].kidnies == 0){\n            delete deadDonors[donor1];\n        }\n    }\n\n    function getTransplant(address reciever1)public view verifyAdmin returns(address){\n        return transplants[reciever1].donor;\n    }\n}",
  "sourcePath": "/Users/shri99/WebstormProjects/JuniorG-healthcare-dapp/ethereum/contracts/dOrgan.sol",
  "compiler": {
    "name": "solc",
    "version": "0.5.1+commit.c8a2cb62.Emscripten.clang"
  },
  "schemaVersion": "3.0.1",
  "updatedAt": "2019-02-16T18:27:05.598Z",
  "devdoc": {
    "methods": {}
  },
  "userdoc": {
    "methods": {}
  }
}