{
  "contractName": "dOrgan",
  "abi": [
    {
      "inputs": [],
      "payable": false,
      "stateMutability": "nonpayable",
      "type": "constructor",
      "signature": "constructor"
    },
    {
      "anonymous": false,
      "inputs": [],
      "name": "donorDead",
      "type": "event",
      "signature": "0xb97ea88899dd08b6ffdec3d991bcb6205f535ca4c1e212a0b350bfdb3ab11d8f"
    },
    {
      "constant": true,
      "inputs": [],
      "name": "getAdmin",
      "outputs": [
        {
          "name": "",
          "type": "address"
        }
      ],
      "payable": false,
      "stateMutability": "view",
      "type": "function",
      "signature": "0x6e9960c3"
    },
    {
      "constant": false,
      "inputs": [
        {
          "name": "admin1",
          "type": "address"
        }
      ],
      "name": "setAdmin",
      "outputs": [],
      "payable": false,
      "stateMutability": "nonpayable",
      "type": "function",
      "signature": "0x704b6c02"
    },
    {
      "constant": false,
      "inputs": [
        {
          "name": "addr",
          "type": "address"
        }
      ],
      "name": "addReciever",
      "outputs": [],
      "payable": false,
      "stateMutability": "nonpayable",
      "type": "function",
      "signature": "0xd44e7484"
    },
    {
      "constant": true,
      "inputs": [],
      "name": "getRecievers",
      "outputs": [
        {
          "name": "",
          "type": "address[]"
        }
      ],
      "payable": false,
      "stateMutability": "view",
      "type": "function",
      "signature": "0x6cfadb4d"
    },
    {
      "constant": false,
      "inputs": [
        {
          "name": "addr",
          "type": "address"
        }
      ],
      "name": "removeReciever",
      "outputs": [],
      "payable": false,
      "stateMutability": "nonpayable",
      "type": "function",
      "signature": "0x9609ee4c"
    },
    {
      "constant": false,
      "inputs": [
        {
          "name": "oldAddr",
          "type": "address"
        },
        {
          "name": "newAddr",
          "type": "address"
        }
      ],
      "name": "updateReciever",
      "outputs": [],
      "payable": false,
      "stateMutability": "nonpayable",
      "type": "function",
      "signature": "0xbd2103f2"
    },
    {
      "constant": true,
      "inputs": [
        {
          "name": "addr",
          "type": "address"
        }
      ],
      "name": "getTransplanted",
      "outputs": [
        {
          "name": "",
          "type": "bool"
        }
      ],
      "payable": false,
      "stateMutability": "view",
      "type": "function",
      "signature": "0xb0fa2cf6"
    },
    {
      "constant": false,
      "inputs": [
        {
          "name": "addr",
          "type": "address"
        }
      ],
      "name": "addRecieverToWaitlist",
      "outputs": [],
      "payable": false,
      "stateMutability": "nonpayable",
      "type": "function",
      "signature": "0x912c6527"
    },
    {
      "constant": false,
      "inputs": [
        {
          "name": "addr",
          "type": "address"
        }
      ],
      "name": "removeRecieverFromWaitlist",
      "outputs": [],
      "payable": false,
      "stateMutability": "nonpayable",
      "type": "function",
      "signature": "0xdcebe704"
    },
    {
      "constant": false,
      "inputs": [
        {
          "name": "addr",
          "type": "address"
        }
      ],
      "name": "addLiveDonor",
      "outputs": [],
      "payable": false,
      "stateMutability": "nonpayable",
      "type": "function",
      "signature": "0x17091449"
    },
    {
      "constant": true,
      "inputs": [],
      "name": "getLiveDonors",
      "outputs": [
        {
          "name": "",
          "type": "address[]"
        }
      ],
      "payable": false,
      "stateMutability": "view",
      "type": "function",
      "signature": "0xb3f33391"
    },
    {
      "constant": false,
      "inputs": [
        {
          "name": "addr",
          "type": "address"
        }
      ],
      "name": "removeLiveDonor",
      "outputs": [],
      "payable": false,
      "stateMutability": "nonpayable",
      "type": "function",
      "signature": "0x83b03b17"
    },
    {
      "constant": false,
      "inputs": [
        {
          "name": "oldAddr",
          "type": "address"
        },
        {
          "name": "newAddr",
          "type": "address"
        }
      ],
      "name": "updateLiveDonor",
      "outputs": [],
      "payable": false,
      "stateMutability": "nonpayable",
      "type": "function",
      "signature": "0x27c757cd"
    },
    {
      "constant": false,
      "inputs": [
        {
          "name": "addr",
          "type": "address"
        }
      ],
      "name": "approveLiveTransplant",
      "outputs": [],
      "payable": false,
      "stateMutability": "nonpayable",
      "type": "function",
      "signature": "0xf0126f5e"
    },
    {
      "constant": false,
      "inputs": [
        {
          "name": "addr",
          "type": "address"
        }
      ],
      "name": "removeLiveTransplantApproval",
      "outputs": [],
      "payable": false,
      "stateMutability": "nonpayable",
      "type": "function",
      "signature": "0x50894de5"
    },
    {
      "constant": false,
      "inputs": [
        {
          "name": "addr",
          "type": "address"
        }
      ],
      "name": "addDeadDonor",
      "outputs": [],
      "payable": false,
      "stateMutability": "nonpayable",
      "type": "function",
      "signature": "0x2d062add"
    },
    {
      "constant": true,
      "inputs": [],
      "name": "getDeadDonors",
      "outputs": [
        {
          "name": "",
          "type": "address[]"
        }
      ],
      "payable": false,
      "stateMutability": "view",
      "type": "function",
      "signature": "0x118ca996"
    },
    {
      "constant": false,
      "inputs": [
        {
          "name": "addr",
          "type": "address"
        }
      ],
      "name": "removeDeadDonor",
      "outputs": [],
      "payable": false,
      "stateMutability": "nonpayable",
      "type": "function",
      "signature": "0x045b5d8e"
    },
    {
      "constant": false,
      "inputs": [
        {
          "name": "oldAddr",
          "type": "address"
        },
        {
          "name": "newAddr",
          "type": "address"
        }
      ],
      "name": "updateDeadDonor",
      "outputs": [],
      "payable": false,
      "stateMutability": "nonpayable",
      "type": "function",
      "signature": "0x53160c92"
    },
    {
      "constant": false,
      "inputs": [
        {
          "name": "addr",
          "type": "address"
        }
      ],
      "name": "approveDeadTransplant",
      "outputs": [],
      "payable": false,
      "stateMutability": "nonpayable",
      "type": "function",
      "signature": "0xbf6346de"
    },
    {
      "constant": false,
      "inputs": [
        {
          "name": "addr",
          "type": "address"
        }
      ],
      "name": "removeDeadTransplantApproval",
      "outputs": [],
      "payable": false,
      "stateMutability": "nonpayable",
      "type": "function",
      "signature": "0x39fa98b6"
    },
    {
      "constant": false,
      "inputs": [
        {
          "name": "reciever1",
          "type": "address"
        },
        {
          "name": "donor1",
          "type": "address"
        }
      ],
      "name": "transplantLiveDonor",
      "outputs": [],
      "payable": false,
      "stateMutability": "nonpayable",
      "type": "function",
      "signature": "0xa23675f3"
    },
    {
      "constant": false,
      "inputs": [
        {
          "name": "reciever1",
          "type": "address"
        },
        {
          "name": "donor1",
          "type": "address"
        }
      ],
      "name": "transplantDeadDonor",
      "outputs": [],
      "payable": false,
      "stateMutability": "nonpayable",
      "type": "function",
      "signature": "0x8c1b6511"
    }
  ],
  "bytecode": "0x608060405234801561001057600080fd5b50336000806101000a81548173ffffffffffffffffffffffffffffffffffffffff021916908373ffffffffffffffffffffffffffffffffffffffff160217905550613026806100606000396000f3fe60806040526004361061012d576000357c010000000000000000000000000000000000000000000000000000000090048063045b5d8e14610132578063118ca9961461018357806317091449146101ef57806327c757cd146102405780632d062add146102b157806339fa98b61461030257806350894de51461035357806353160c92146103a45780636cfadb4d146104155780636e9960c314610481578063704b6c02146104d857806383b03b17146105295780638c1b65111461057a578063912c6527146105eb5780639609ee4c1461063c578063a23675f31461068d578063b0fa2cf6146106fe578063b3f3339114610767578063bd2103f2146107d3578063bf6346de14610844578063d44e748414610895578063dcebe704146108e6578063f0126f5e14610937575b600080fd5b34801561013e57600080fd5b506101816004803603602081101561015557600080fd5b81019080803573ffffffffffffffffffffffffffffffffffffffff169060200190929190505050610988565b005b34801561018f57600080fd5b50610198610b9f565b6040518080602001828103825283818151815260200191508051906020019060200280838360005b838110156101db5780820151818401526020810190506101c0565b505050509050019250505060405180910390f35b3480156101fb57600080fd5b5061023e6004803603602081101561021257600080fd5b81019080803573ffffffffffffffffffffffffffffffffffffffff169060200190929190505050610cf1565b005b34801561024c57600080fd5b506102af6004803603604081101561026357600080fd5b81019080803573ffffffffffffffffffffffffffffffffffffffff169060200190929190803573ffffffffffffffffffffffffffffffffffffffff169060200190929190505050610ef5565b005b3480156102bd57600080fd5b50610300600480360360208110156102d457600080fd5b81019080803573ffffffffffffffffffffffffffffffffffffffff169060200190929190505050610fcf565b005b34801561030e57600080fd5b506103516004803603602081101561032557600080fd5b81019080803573ffffffffffffffffffffffffffffffffffffffff1690602001909291905050506111e5565b005b34801561035f57600080fd5b506103a26004803603602081101561037657600080fd5b81019080803573ffffffffffffffffffffffffffffffffffffffff1690602001909291905050506113f3565b005b3480156103b057600080fd5b50610413600480360360408110156103c757600080fd5b81019080803573ffffffffffffffffffffffffffffffffffffffff169060200190929190803573ffffffffffffffffffffffffffffffffffffffff1690602001909291905050506115db565b005b34801561042157600080fd5b5061042a6116b5565b6040518080602001828103825283818151815260200191508051906020019060200280838360005b8381101561046d578082015181840152602081019050610452565b505050509050019250505060405180910390f35b34801561048d57600080fd5b50610496611807565b604051808273ffffffffffffffffffffffffffffffffffffffff1673ffffffffffffffffffffffffffffffffffffffff16815260200191505060405180910390f35b3480156104e457600080fd5b50610527600480360360208110156104fb57600080fd5b81019080803573ffffffffffffffffffffffffffffffffffffffff169060200190929190505050611830565b005b34801561053557600080fd5b506105786004803603602081101561054c57600080fd5b81019080803573ffffffffffffffffffffffffffffffffffffffff169060200190929190505050611937565b005b34801561058657600080fd5b506105e96004803603604081101561059d57600080fd5b81019080803573ffffffffffffffffffffffffffffffffffffffff169060200190929190803573ffffffffffffffffffffffffffffffffffffffff169060200190929190505050611b46565b005b3480156105f757600080fd5b5061063a6004803603602081101561060e57600080fd5b81019080803573ffffffffffffffffffffffffffffffffffffffff1690602001909291905050506120b9565b005b34801561064857600080fd5b5061068b6004803603602081101561065f57600080fd5b81019080803573ffffffffffffffffffffffffffffffffffffffff1690602001909291905050506121d1565b005b34801561069957600080fd5b506106fc600480360360408110156106b057600080fd5b81019080803573ffffffffffffffffffffffffffffffffffffffff169060200190929190803573ffffffffffffffffffffffffffffffffffffffff1690602001909291905050506123e0565b005b34801561070a57600080fd5b5061074d6004803603602081101561072157600080fd5b81019080803573ffffffffffffffffffffffffffffffffffffffff1690602001909291905050506127bd565b604051808215151515815260200191505060405180910390f35b34801561077357600080fd5b5061077c6128da565b6040518080602001828103825283818151815260200191508051906020019060200280838360005b838110156107bf5780820151818401526020810190506107a4565b505050509050019250505060405180910390f35b3480156107df57600080fd5b50610842600480360360408110156107f657600080fd5b81019080803573ffffffffffffffffffffffffffffffffffffffff169060200190929190803573ffffffffffffffffffffffffffffffffffffffff169060200190929190505050612a2c565b005b34801561085057600080fd5b506108936004803603602081101561086757600080fd5b81019080803573ffffffffffffffffffffffffffffffffffffffff169060200190929190505050612b06565b005b3480156108a157600080fd5b506108e4600480360360208110156108b857600080fd5b81019080803573ffffffffffffffffffffffffffffffffffffffff169060200190929190505050612c54565b005b3480156108f257600080fd5b506109356004803603602081101561090957600080fd5b81019080803573ffffffffffffffffffffffffffffffffffffffff169060200190929190505050612e58565b005b34801561094357600080fd5b506109866004803603602081101561095a57600080fd5b81019080803573ffffffffffffffffffffffffffffffffffffffff169060200190929190505050612ed8565b005b3373ffffffffffffffffffffffffffffffffffffffff166000809054906101000a900473ffffffffffffffffffffffffffffffffffffffff1673ffffffffffffffffffffffffffffffffffffffff16141515610a4c576040517f08c379a00000000000000000000000000000000000000000000000000000000081526004018080602001828103825260178152602001807f596f757220617265206e6f7420617574686f72697a656400000000000000000081525060200191505060405180910390fd5b60008090505b600380549050811015610b16578173ffffffffffffffffffffffffffffffffffffffff16600382815481101515610a8557fe5b9060005260206000200160009054906101000a900473ffffffffffffffffffffffffffffffffffffffff1673ffffffffffffffffffffffffffffffffffffffff161415610b0957600381815481101515610adb57fe5b9060005260206000200160006101000a81549073ffffffffffffffffffffffffffffffffffffffff02191690555b8080600101915050610a52565b50600760008273ffffffffffffffffffffffffffffffffffffffff1673ffffffffffffffffffffffffffffffffffffffff168152602001908152602001600020600080820160006101000a81549073ffffffffffffffffffffffffffffffffffffffff02191690556000820160146101000a81549060ff02191690556001820160009055505050565b60603373ffffffffffffffffffffffffffffffffffffffff166000809054906101000a900473ffffffffffffffffffffffffffffffffffffffff1673ffffffffffffffffffffffffffffffffffffffff16141515610c65576040517f08c379a00000000000000000000000000000000000000000000000000000000081526004018080602001828103825260178152602001807f596f757220617265206e6f7420617574686f72697a656400000000000000000081525060200191505060405180910390fd5b6003805480602002602001604051908101604052809291908181526020018280548015610ce757602002820191906000526020600020905b8160009054906101000a900473ffffffffffffffffffffffffffffffffffffffff1673ffffffffffffffffffffffffffffffffffffffff1681526020019060010190808311610c9d575b5050505050905090565b3373ffffffffffffffffffffffffffffffffffffffff166000809054906101000a900473ffffffffffffffffffffffffffffffffffffffff1673ffffffffffffffffffffffffffffffffffffffff16141515610db5576040517f08c379a00000000000000000000000000000000000000000000000000000000081526004018080602001828103825260178152602001807f596f757220617265206e6f7420617574686f72697a656400000000000000000081525060200191505060405180910390fd5b60408051908101604052808273ffffffffffffffffffffffffffffffffffffffff16815260200160001515815250600660008373ffffffffffffffffffffffffffffffffffffffff1673ffffffffffffffffffffffffffffffffffffffff16815260200190815260200160002060008201518160000160006101000a81548173ffffffffffffffffffffffffffffffffffffffff021916908373ffffffffffffffffffffffffffffffffffffffff16021790555060208201518160000160146101000a81548160ff02191690831515021790555090505060028190806001815401808255809150509060018203906000526020600020016000909192909190916101000a81548173ffffffffffffffffffffffffffffffffffffffff021916908373ffffffffffffffffffffffffffffffffffffffff1602179055505050565b3373ffffffffffffffffffffffffffffffffffffffff166000809054906101000a900473ffffffffffffffffffffffffffffffffffffffff1673ffffffffffffffffffffffffffffffffffffffff16141515610fb9576040517f08c379a00000000000000000000000000000000000000000000000000000000081526004018080602001828103825260178152602001807f596f757220617265206e6f7420617574686f72697a656400000000000000000081525060200191505060405180910390fd5b610fc282611937565b610fcb81610cf1565b5050565b3373ffffffffffffffffffffffffffffffffffffffff166000809054906101000a900473ffffffffffffffffffffffffffffffffffffffff1673ffffffffffffffffffffffffffffffffffffffff16141515611093576040517f08c379a00000000000000000000000000000000000000000000000000000000081526004018080602001828103825260178152602001807f596f757220617265206e6f7420617574686f72697a656400000000000000000081525060200191505060405180910390fd5b6060604051908101604052808273ffffffffffffffffffffffffffffffffffffffff1681526020016001151581526020016002815250600760008373ffffffffffffffffffffffffffffffffffffffff1673ffffffffffffffffffffffffffffffffffffffff16815260200190815260200160002060008201518160000160006101000a81548173ffffffffffffffffffffffffffffffffffffffff021916908373ffffffffffffffffffffffffffffffffffffffff16021790555060208201518160000160146101000a81548160ff0219169083151502179055506040820151816001015590505060038190806001815401808255809150509060018203906000526020600020016000909192909190916101000a81548173ffffffffffffffffffffffffffffffffffffffff021916908373ffffffffffffffffffffffffffffffffffffffff1602179055505050565b3373ffffffffffffffffffffffffffffffffffffffff166000809054906101000a900473ffffffffffffffffffffffffffffffffffffffff1673ffffffffffffffffffffffffffffffffffffffff161415156112a9576040517f08c379a00000000000000000000000000000000000000000000000000000000081526004018080602001828103825260178152602001807f596f757220617265206e6f7420617574686f72697a656400000000000000000081525060200191505060405180910390fd5b80600760008273ffffffffffffffffffffffffffffffffffffffff1673ffffffffffffffffffffffffffffffffffffffff16815260200190815260200160002060000160149054906101000a900460ff161515611394576040517f08c379a00000000000000000000000000000000000000000000000000000000081526004018080602001828103825260228152602001807f52656c6174697665206f6620646f6e6f72206469646e277420617070726f766581526020017f642e00000000000000000000000000000000000000000000000000000000000081525060400191505060405180910390fd5b6000600760008473ffffffffffffffffffffffffffffffffffffffff1673ffffffffffffffffffffffffffffffffffffffff16815260200190815260200160002060000160146101000a81548160ff0219169083151502179055505050565b3373ffffffffffffffffffffffffffffffffffffffff166000809054906101000a900473ffffffffffffffffffffffffffffffffffffffff1673ffffffffffffffffffffffffffffffffffffffff161415156114b7576040517f08c379a00000000000000000000000000000000000000000000000000000000081526004018080602001828103825260178152602001807f596f757220617265206e6f7420617574686f72697a656400000000000000000081525060200191505060405180910390fd5b80600660008273ffffffffffffffffffffffffffffffffffffffff1673ffffffffffffffffffffffffffffffffffffffff16815260200190815260200160002060000160149054906101000a900460ff16151561157c576040517f08c379a00000000000000000000000000000000000000000000000000000000081526004018080602001828103825260168152602001807f446f6e6f72206469646e277420617070726f7665642e0000000000000000000081525060200191505060405180910390fd5b6000600660008473ffffffffffffffffffffffffffffffffffffffff1673ffffffffffffffffffffffffffffffffffffffff16815260200190815260200160002060000160146101000a81548160ff0219169083151502179055505050565b3373ffffffffffffffffffffffffffffffffffffffff166000809054906101000a900473ffffffffffffffffffffffffffffffffffffffff1673ffffffffffffffffffffffffffffffffffffffff1614151561169f576040517f08c379a00000000000000000000000000000000000000000000000000000000081526004018080602001828103825260178152602001807f596f757220617265206e6f7420617574686f72697a656400000000000000000081525060200191505060405180910390fd5b6116a882610988565b6116b181610fcf565b5050565b60603373ffffffffffffffffffffffffffffffffffffffff166000809054906101000a900473ffffffffffffffffffffffffffffffffffffffff1673ffffffffffffffffffffffffffffffffffffffff1614151561177b576040517f08c379a00000000000000000000000000000000000000000000000000000000081526004018080602001828103825260178152602001807f596f757220617265206e6f7420617574686f72697a656400000000000000000081525060200191505060405180910390fd5b60018054806020026020016040519081016040528092919081815260200182805480156117fd57602002820191906000526020600020905b8160009054906101000a900473ffffffffffffffffffffffffffffffffffffffff1673ffffffffffffffffffffffffffffffffffffffff16815260200190600101908083116117b3575b5050505050905090565b60008060009054906101000a900473ffffffffffffffffffffffffffffffffffffffff16905090565b3373ffffffffffffffffffffffffffffffffffffffff166000809054906101000a900473ffffffffffffffffffffffffffffffffffffffff1673ffffffffffffffffffffffffffffffffffffffff161415156118f4576040517f08c379a00000000000000000000000000000000000000000000000000000000081526004018080602001828103825260178152602001807f596f757220617265206e6f7420617574686f72697a656400000000000000000081525060200191505060405180910390fd5b806000806101000a81548173ffffffffffffffffffffffffffffffffffffffff021916908373ffffffffffffffffffffffffffffffffffffffff16021790555050565b3373ffffffffffffffffffffffffffffffffffffffff166000809054906101000a900473ffffffffffffffffffffffffffffffffffffffff1673ffffffffffffffffffffffffffffffffffffffff161415156119fb576040517f08c379a00000000000000000000000000000000000000000000000000000000081526004018080602001828103825260178152602001807f596f757220617265206e6f7420617574686f72697a656400000000000000000081525060200191505060405180910390fd5b60008090505b600280549050811015611ac5578173ffffffffffffffffffffffffffffffffffffffff16600282815481101515611a3457fe5b9060005260206000200160009054906101000a900473ffffffffffffffffffffffffffffffffffffffff1673ffffffffffffffffffffffffffffffffffffffff161415611ab857600281815481101515611a8a57fe5b9060005260206000200160006101000a81549073ffffffffffffffffffffffffffffffffffffffff02191690555b8080600101915050611a01565b50600660008273ffffffffffffffffffffffffffffffffffffffff1673ffffffffffffffffffffffffffffffffffffffff168152602001908152602001600020600080820160006101000a81549073ffffffffffffffffffffffffffffffffffffffff02191690556000820160146101000a81549060ff0219169055505050565b3373ffffffffffffffffffffffffffffffffffffffff166000809054906101000a900473ffffffffffffffffffffffffffffffffffffffff1673ffffffffffffffffffffffffffffffffffffffff16141515611c0a576040517f08c379a00000000000000000000000000000000000000000000000000000000081526004018080602001828103825260178152602001807f596f757220617265206e6f7420617574686f72697a656400000000000000000081525060200191505060405180910390fd5b80600760008273ffffffffffffffffffffffffffffffffffffffff1673ffffffffffffffffffffffffffffffffffffffff16815260200190815260200160002060000160149054906101000a900460ff161515611cf5576040517f08c379a00000000000000000000000000000000000000000000000000000000081526004018080602001828103825260228152602001807f52656c6174697665206f6620646f6e6f72206469646e277420617070726f766581526020017f642e00000000000000000000000000000000000000000000000000000000000081525060400191505060405180910390fd5b6000600760008473ffffffffffffffffffffffffffffffffffffffff1673ffffffffffffffffffffffffffffffffffffffff168152602001908152602001600020600101541115611fe3576001600560008573ffffffffffffffffffffffffffffffffffffffff1673ffffffffffffffffffffffffffffffffffffffff16815260200190815260200160002060000160146101000a81548160ff02191690831515021790555060408051908101604052808473ffffffffffffffffffffffffffffffffffffffff1681526020018373ffffffffffffffffffffffffffffffffffffffff16815250600960008573ffffffffffffffffffffffffffffffffffffffff1673ffffffffffffffffffffffffffffffffffffffff16815260200190815260200160002060008201518160000160006101000a81548173ffffffffffffffffffffffffffffffffffffffff021916908373ffffffffffffffffffffffffffffffffffffffff16021790555060208201518160010160006101000a81548173ffffffffffffffffffffffffffffffffffffffff021916908373ffffffffffffffffffffffffffffffffffffffff160217905550905050600760008373ffffffffffffffffffffffffffffffffffffffff1673ffffffffffffffffffffffffffffffffffffffff168152602001908152602001600020600101600081548092919060019003919050555060048390806001815401808255809150509060018203906000526020600020016000909192909190916101000a81548173ffffffffffffffffffffffffffffffffffffffff021916908373ffffffffffffffffffffffffffffffffffffffff16021790555050600860008473ffffffffffffffffffffffffffffffffffffffff1673ffffffffffffffffffffffffffffffffffffffff168152602001908152602001600020600080820160006101000a81549073ffffffffffffffffffffffffffffffffffffffff02191690556000820160146101000a81549060ff021916905550505b6000600760008473ffffffffffffffffffffffffffffffffffffffff1673ffffffffffffffffffffffffffffffffffffffff1681526020019081526020016000206001015414156120b457600760008373ffffffffffffffffffffffffffffffffffffffff1673ffffffffffffffffffffffffffffffffffffffff168152602001908152602001600020600080820160006101000a81549073ffffffffffffffffffffffffffffffffffffffff02191690556000820160146101000a81549060ff0219169055600182016000905550505b505050565b600560008273ffffffffffffffffffffffffffffffffffffffff1673ffffffffffffffffffffffffffffffffffffffff168152602001908152602001600020600860008373ffffffffffffffffffffffffffffffffffffffff1673ffffffffffffffffffffffffffffffffffffffff1681526020019081526020016000206000820160009054906101000a900473ffffffffffffffffffffffffffffffffffffffff168160000160006101000a81548173ffffffffffffffffffffffffffffffffffffffff021916908373ffffffffffffffffffffffffffffffffffffffff1602179055506000820160149054906101000a900460ff168160000160146101000a81548160ff02191690831515021790555090505050565b3373ffffffffffffffffffffffffffffffffffffffff166000809054906101000a900473ffffffffffffffffffffffffffffffffffffffff1673ffffffffffffffffffffffffffffffffffffffff16141515612295576040517f08c379a00000000000000000000000000000000000000000000000000000000081526004018080602001828103825260178152602001807f596f757220617265206e6f7420617574686f72697a656400000000000000000081525060200191505060405180910390fd5b60008090505b60018054905081101561235f578173ffffffffffffffffffffffffffffffffffffffff166001828154811015156122ce57fe5b9060005260206000200160009054906101000a900473ffffffffffffffffffffffffffffffffffffffff1673ffffffffffffffffffffffffffffffffffffffff1614156123525760018181548110151561232457fe5b9060005260206000200160006101000a81549073ffffffffffffffffffffffffffffffffffffffff02191690555b808060010191505061229b565b50600560008273ffffffffffffffffffffffffffffffffffffffff1673ffffffffffffffffffffffffffffffffffffffff168152602001908152602001600020600080820160006101000a81549073ffffffffffffffffffffffffffffffffffffffff02191690556000820160146101000a81549060ff0219169055505050565b3373ffffffffffffffffffffffffffffffffffffffff166000809054906101000a900473ffffffffffffffffffffffffffffffffffffffff1673ffffffffffffffffffffffffffffffffffffffff161415156124a4576040517f08c379a00000000000000000000000000000000000000000000000000000000081526004018080602001828103825260178152602001807f596f757220617265206e6f7420617574686f72697a656400000000000000000081525060200191505060405180910390fd5b80600660008273ffffffffffffffffffffffffffffffffffffffff1673ffffffffffffffffffffffffffffffffffffffff16815260200190815260200160002060000160149054906101000a900460ff161515612569576040517f08c379a00000000000000000000000000000000000000000000000000000000081526004018080602001828103825260168152602001807f446f6e6f72206469646e277420617070726f7665642e0000000000000000000081525060200191505060405180910390fd5b6001600560008573ffffffffffffffffffffffffffffffffffffffff1673ffffffffffffffffffffffffffffffffffffffff16815260200190815260200160002060000160146101000a81548160ff02191690831515021790555060408051908101604052808473ffffffffffffffffffffffffffffffffffffffff1681526020018373ffffffffffffffffffffffffffffffffffffffff16815250600960008573ffffffffffffffffffffffffffffffffffffffff1673ffffffffffffffffffffffffffffffffffffffff16815260200190815260200160002060008201518160000160006101000a81548173ffffffffffffffffffffffffffffffffffffffff021916908373ffffffffffffffffffffffffffffffffffffffff16021790555060208201518160010160006101000a81548173ffffffffffffffffffffffffffffffffffffffff021916908373ffffffffffffffffffffffffffffffffffffffff16021790555090505060048390806001815401808255809150509060018203906000526020600020016000909192909190916101000a81548173ffffffffffffffffffffffffffffffffffffffff021916908373ffffffffffffffffffffffffffffffffffffffff16021790555050600660008373ffffffffffffffffffffffffffffffffffffffff1673ffffffffffffffffffffffffffffffffffffffff168152602001908152602001600020600080820160006101000a81549073ffffffffffffffffffffffffffffffffffffffff02191690556000820160146101000a81549060ff02191690555050505050565b60003373ffffffffffffffffffffffffffffffffffffffff166000809054906101000a900473ffffffffffffffffffffffffffffffffffffffff1673ffffffffffffffffffffffffffffffffffffffff16141515612883576040517f08c379a00000000000000000000000000000000000000000000000000000000081526004018080602001828103825260178152602001807f596f757220617265206e6f7420617574686f72697a656400000000000000000081525060200191505060405180910390fd5b600560008373ffffffffffffffffffffffffffffffffffffffff1673ffffffffffffffffffffffffffffffffffffffff16815260200190815260200160002060000160149054906101000a900460ff169050919050565b60603373ffffffffffffffffffffffffffffffffffffffff166000809054906101000a900473ffffffffffffffffffffffffffffffffffffffff1673ffffffffffffffffffffffffffffffffffffffff161415156129a0576040517f08c379a00000000000000000000000000000000000000000000000000000000081526004018080602001828103825260178152602001807f596f757220617265206e6f7420617574686f72697a656400000000000000000081525060200191505060405180910390fd5b6002805480602002602001604051908101604052809291908181526020018280548015612a2257602002820191906000526020600020905b8160009054906101000a900473ffffffffffffffffffffffffffffffffffffffff1673ffffffffffffffffffffffffffffffffffffffff16815260200190600101908083116129d8575b5050505050905090565b3373ffffffffffffffffffffffffffffffffffffffff166000809054906101000a900473ffffffffffffffffffffffffffffffffffffffff1673ffffffffffffffffffffffffffffffffffffffff16141515612af0576040517f08c379a00000000000000000000000000000000000000000000000000000000081526004018080602001828103825260178152602001807f596f757220617265206e6f7420617574686f72697a656400000000000000000081525060200191505060405180910390fd5b612af9826121d1565b612b0281612c54565b5050565b3373ffffffffffffffffffffffffffffffffffffffff166000809054906101000a900473ffffffffffffffffffffffffffffffffffffffff1673ffffffffffffffffffffffffffffffffffffffff16141515612bca576040517f08c379a00000000000000000000000000000000000000000000000000000000081526004018080602001828103825260178152602001807f596f757220617265206e6f7420617574686f72697a656400000000000000000081525060200191505060405180910390fd5b6001600760008373ffffffffffffffffffffffffffffffffffffffff1673ffffffffffffffffffffffffffffffffffffffff16815260200190815260200160002060000160146101000a81548160ff0219169083151502179055507fb97ea88899dd08b6ffdec3d991bcb6205f535ca4c1e212a0b350bfdb3ab11d8f60405160405180910390a150565b3373ffffffffffffffffffffffffffffffffffffffff166000809054906101000a900473ffffffffffffffffffffffffffffffffffffffff1673ffffffffffffffffffffffffffffffffffffffff16141515612d18576040517f08c379a00000000000000000000000000000000000000000000000000000000081526004018080602001828103825260178152602001807f596f757220617265206e6f7420617574686f72697a656400000000000000000081525060200191505060405180910390fd5b60408051908101604052808273ffffffffffffffffffffffffffffffffffffffff16815260200160001515815250600560008373ffffffffffffffffffffffffffffffffffffffff1673ffffffffffffffffffffffffffffffffffffffff16815260200190815260200160002060008201518160000160006101000a81548173ffffffffffffffffffffffffffffffffffffffff021916908373ffffffffffffffffffffffffffffffffffffffff16021790555060208201518160000160146101000a81548160ff02191690831515021790555090505060018190806001815401808255809150509060018203906000526020600020016000909192909190916101000a81548173ffffffffffffffffffffffffffffffffffffffff021916908373ffffffffffffffffffffffffffffffffffffffff1602179055505050565b600860008273ffffffffffffffffffffffffffffffffffffffff1673ffffffffffffffffffffffffffffffffffffffff168152602001908152602001600020600080820160006101000a81549073ffffffffffffffffffffffffffffffffffffffff02191690556000820160146101000a81549060ff0219169055505050565b3373ffffffffffffffffffffffffffffffffffffffff166000809054906101000a900473ffffffffffffffffffffffffffffffffffffffff1673ffffffffffffffffffffffffffffffffffffffff16141515612f9c576040517f08c379a00000000000000000000000000000000000000000000000000000000081526004018080602001828103825260178152602001807f596f757220617265206e6f7420617574686f72697a656400000000000000000081525060200191505060405180910390fd5b6001600660008373ffffffffffffffffffffffffffffffffffffffff1673ffffffffffffffffffffffffffffffffffffffff16815260200190815260200160002060000160146101000a81548160ff0219169083151502179055505056fea165627a7a7230582021dab214a7a37d93cea580b175cdb2123f754e3b23740a2928a8ba81441b53e20029",
  "source": "// Solidity Version\npragma solidity >=0.4.26;\n\n// Contract dOrgan\ncontract dOrgan{\n\n    // Events\n    event donorDead();\n\n    // Structs\n    struct Reciever{\n        address patient;\n        bool transplanted;\n    }\n\n    struct LiveDonor{\n        address donor;\n        bool approve;\n    }\n\n    struct DeadDonor{\n        address donor;\n        bool approve;\n        uint kidneies;\n    }\n\n    struct Transplant{\n        address reciever;\n        address donor;\n    }\n\n    // Global Variables\n    address admin;\n    address[] recieverArr;\n    address[] liveDonorArr;\n    address[] deadDonorArr;\n    address[] transplantArr;\n\n    // Mappings\n    mapping(address => Reciever) recievers;\n    mapping(address => LiveDonor) liveDonors;\n    mapping(address => DeadDonor) deadDonors;\n    mapping(address => Reciever) waitlist;\n    mapping(address => Transplant) transplants;\n\n    // Modifiers\n    modifier verifyAdmin(){\n        require(admin == msg.sender,\"Your are not authorized\");\n        _;\n    }\n\n    modifier approveLiveDonor(address liveDonor1){\n        require(liveDonors[liveDonor1].approve,\"Donor didn't approved.\");\n        _;\n    }\n\n    modifier approveDeadDonor(address deadDonor1){\n        require(deadDonors[deadDonor1].approve,\"Relative of donor didn't approved.\");\n        _;\n    }\n\n    // Constructor\n    constructor() public{\n        admin = msg.sender;\n    }\n\n    //Admin Getters & Setters\n    function getAdmin() public view returns(address){\n        return admin;\n    }\n\n    function setAdmin(address admin1) public verifyAdmin{\n        admin = admin1;\n    }\n\n    /*\n    Suppose a Patient detected by ckd stage 5 then, it requires immediate Transplant\n    so, he has two ways, first to go for the Live Donor(i.e. Relatives) or wait in the\n    waiting list (i.e. when some one is dead) to get someone's Kidney.\n    */\n\n    // Patient functions\n    function addReciever(address addr)public verifyAdmin{\n        recievers[addr] = Reciever(addr,false);\n        recieverArr.push(addr);\n    }\n\n    function getRecievers() public view verifyAdmin returns(address[] memory){\n        return recieverArr;\n    }\n\n    function removeReciever(address addr) public verifyAdmin{\n        for(uint i = 0; i<recieverArr.length;i++){\n            if(recieverArr[i] == addr) delete recieverArr[i];\n        }\n        delete recievers[addr];\n    }\n\n    function updateReciever(address oldAddr, address newAddr) public verifyAdmin{\n        removeReciever(oldAddr);\n        addReciever(newAddr);\n    }\n\n    function getTransplanted(address addr) public view verifyAdmin returns(bool){\n        return recievers[addr].transplanted;\n    }\n\n    function addRecieverToWaitlist(address addr)public{\n        waitlist[addr] = recievers[addr];\n    }\n\n    function removeRecieverFromWaitlist(address addr)public{\n        delete waitlist[addr];\n    }\n\n    /*\n    Suppose that patient opt for transplantation from a living donor(i.e. Relatives)\n    then the donor(person) has to approve that its Kidney is being transplanted.\n    */\n\n    // Live Donor Functions\n    function addLiveDonor(address addr) public verifyAdmin{\n        liveDonors[addr] = LiveDonor(addr, false);\n        liveDonorArr.push(addr);\n    }\n\n    function getLiveDonors() public view verifyAdmin returns(address[] memory){\n        return liveDonorArr;\n    }\n\n    function removeLiveDonor(address addr) public verifyAdmin{\n        for(uint i = 0; i<liveDonorArr.length;i++){\n            if(liveDonorArr[i] == addr) delete liveDonorArr[i];\n        }\n        delete liveDonors[addr];\n    }\n\n    function updateLiveDonor(address oldAddr, address newAddr) public verifyAdmin{\n        removeLiveDonor(oldAddr);\n        addLiveDonor(newAddr);\n    }\n\n    function approveLiveTransplant(address addr)public verifyAdmin{\n        liveDonors[addr].approve = true;\n    }\n\n    function removeLiveTransplantApproval(address addr)public verifyAdmin approveLiveDonor(addr){\n        liveDonors[addr].approve = false;\n    }\n\n    /*\n    Suppose that patient opt for transplantation from a dead donor(i.e. a person who has died)\n    then the donor's relatives has to approve that its kidneies are being transplanted.\n    */\n\n    // Dead Donor Functions\n    function addDeadDonor(address addr) public verifyAdmin{\n        deadDonors[addr] = DeadDonor(addr,true,2);\n        deadDonorArr.push(addr);\n    }\n\n    function getDeadDonors() public view verifyAdmin returns(address[] memory){\n        return deadDonorArr;\n    }\n\n    function removeDeadDonor(address addr) public verifyAdmin{\n        for(uint i = 0; i<deadDonorArr.length;i++){\n            if(deadDonorArr[i] == addr) delete deadDonorArr[i];\n        }\n        delete deadDonors[addr];\n    }\n\n    function updateDeadDonor(address oldAddr, address newAddr) public verifyAdmin{\n        removeDeadDonor(oldAddr);\n        addDeadDonor(newAddr);\n    }\n\n    /*\n    If approved then his kidneies go to the nemerous people in demmand of kidney in waitlist.\n    */\n\n    function approveDeadTransplant(address addr)public verifyAdmin{\n        deadDonors[addr].approve = true;\n        emit donorDead(); // ML Predictions Here\n    }\n\n    function removeDeadTransplantApproval(address addr)public verifyAdmin approveDeadDonor(addr){\n        deadDonors[addr].approve = false;\n    }\n\n    /*\n    Final Transplant.\n    */\n\n    // Transplant functions\n    function transplantLiveDonor(address reciever1,address donor1) public verifyAdmin approveLiveDonor(donor1) {\n        recievers[reciever1].transplanted = true;\n        transplants[reciever1] = Transplant(reciever1,donor1);\n        transplantArr.push(reciever1);\n        delete liveDonors[donor1];\n    }\n\n    function transplantDeadDonor(address reciever1,address donor1) public verifyAdmin approveDeadDonor(donor1) {\n        if(deadDonors[donor1].kidneies > 0){\n            recievers[reciever1].transplanted = true;\n            transplants[reciever1] = Transplant(reciever1,donor1);\n            deadDonors[donor1].kidneies --;\n            transplantArr.push(reciever1);\n            delete waitlist[reciever1];\n        }\n        if(deadDonors[donor1].kidneies == 0){\n            delete deadDonors[donor1];\n        }\n    }\n}",
  "sourcePath": "/Users/shri99/WebstormProjects/dOrgan/contracts/dOrgan.sol",
  "compiler": {
    "name": "solc",
    "version": "0.5.1+commit.c8a2cb62.Emscripten.clang"
  },
  "schemaVersion": "3.0.1",
  "updatedAt": "2019-02-15T18:33:18.104Z",
  "devdoc": {
    "methods": {}
  },
  "userdoc": {
    "methods": {}
  }
}