{
  "contractName": "dOrgan",
  "abi": [
    {
      "inputs": [],
      "payable": false,
      "stateMutability": "nonpayable",
      "type": "constructor",
      "signature": "constructor"
    },
    {
      "anonymous": false,
      "inputs": [],
      "name": "donorDead",
      "type": "event",
      "signature": "0xb97ea88899dd08b6ffdec3d991bcb6205f535ca4c1e212a0b350bfdb3ab11d8f"
    },
    {
      "constant": true,
      "inputs": [],
      "name": "getAdmin",
      "outputs": [
        {
          "name": "",
          "type": "address"
        }
      ],
      "payable": false,
      "stateMutability": "view",
      "type": "function",
      "signature": "0x6e9960c3"
    },
    {
      "constant": false,
      "inputs": [
        {
          "name": "admin1",
          "type": "address"
        }
      ],
      "name": "setAdmin",
      "outputs": [],
      "payable": false,
      "stateMutability": "nonpayable",
      "type": "function",
      "signature": "0x704b6c02"
    },
    {
      "constant": false,
      "inputs": [
        {
          "name": "addr",
          "type": "address"
        },
        {
          "name": "priority1",
          "type": "uint256"
        }
      ],
      "name": "addReciever",
      "outputs": [],
      "payable": false,
      "stateMutability": "nonpayable",
      "type": "function",
      "signature": "0xa9938919"
    },
    {
      "constant": true,
      "inputs": [],
      "name": "getRecievers",
      "outputs": [
        {
          "name": "",
          "type": "address[]"
        }
      ],
      "payable": false,
      "stateMutability": "view",
      "type": "function",
      "signature": "0x6cfadb4d"
    },
    {
      "constant": false,
      "inputs": [
        {
          "name": "addr",
          "type": "address"
        }
      ],
      "name": "removeReciever",
      "outputs": [],
      "payable": false,
      "stateMutability": "nonpayable",
      "type": "function",
      "signature": "0x9609ee4c"
    },
    {
      "constant": false,
      "inputs": [
        {
          "name": "oldAddr",
          "type": "address"
        },
        {
          "name": "newAddr",
          "type": "address"
        }
      ],
      "name": "updateReciever",
      "outputs": [],
      "payable": false,
      "stateMutability": "nonpayable",
      "type": "function",
      "signature": "0xbd2103f2"
    },
    {
      "constant": false,
      "inputs": [
        {
          "name": "addr",
          "type": "address"
        }
      ],
      "name": "addRecieverToWaitlist",
      "outputs": [],
      "payable": false,
      "stateMutability": "nonpayable",
      "type": "function",
      "signature": "0x912c6527"
    },
    {
      "constant": true,
      "inputs": [],
      "name": "getWaitlist",
      "outputs": [
        {
          "name": "",
          "type": "address[]"
        }
      ],
      "payable": false,
      "stateMutability": "view",
      "type": "function",
      "signature": "0x31f1bc05"
    },
    {
      "constant": false,
      "inputs": [
        {
          "name": "addr",
          "type": "address"
        }
      ],
      "name": "removeRecieverFromWaitlist",
      "outputs": [],
      "payable": false,
      "stateMutability": "nonpayable",
      "type": "function",
      "signature": "0xdcebe704"
    },
    {
      "constant": true,
      "inputs": [
        {
          "name": "addr",
          "type": "address"
        }
      ],
      "name": "getPriority",
      "outputs": [
        {
          "name": "",
          "type": "uint256"
        }
      ],
      "payable": false,
      "stateMutability": "view",
      "type": "function",
      "signature": "0x1cc1befe"
    },
    {
      "constant": false,
      "inputs": [
        {
          "name": "addr",
          "type": "address"
        },
        {
          "name": "priority1",
          "type": "uint256"
        }
      ],
      "name": "changePriority",
      "outputs": [],
      "payable": false,
      "stateMutability": "nonpayable",
      "type": "function",
      "signature": "0x9d3042ab"
    },
    {
      "constant": false,
      "inputs": [
        {
          "name": "addr",
          "type": "address"
        }
      ],
      "name": "verifyRecieverByAdmin",
      "outputs": [],
      "payable": false,
      "stateMutability": "nonpayable",
      "type": "function",
      "signature": "0x3d0de878"
    },
    {
      "constant": false,
      "inputs": [
        {
          "name": "addr",
          "type": "address"
        }
      ],
      "name": "getVerificationRecieverByAdmin",
      "outputs": [],
      "payable": false,
      "stateMutability": "nonpayable",
      "type": "function",
      "signature": "0x488ff97b"
    },
    {
      "constant": false,
      "inputs": [
        {
          "name": "addr",
          "type": "address"
        }
      ],
      "name": "addLiveDonor",
      "outputs": [],
      "payable": false,
      "stateMutability": "nonpayable",
      "type": "function",
      "signature": "0x17091449"
    },
    {
      "constant": true,
      "inputs": [],
      "name": "getLiveDonors",
      "outputs": [
        {
          "name": "",
          "type": "address[]"
        }
      ],
      "payable": false,
      "stateMutability": "view",
      "type": "function",
      "signature": "0xb3f33391"
    },
    {
      "constant": false,
      "inputs": [
        {
          "name": "addr",
          "type": "address"
        }
      ],
      "name": "removeLiveDonor",
      "outputs": [],
      "payable": false,
      "stateMutability": "nonpayable",
      "type": "function",
      "signature": "0x83b03b17"
    },
    {
      "constant": false,
      "inputs": [
        {
          "name": "oldAddr",
          "type": "address"
        },
        {
          "name": "newAddr",
          "type": "address"
        }
      ],
      "name": "updateLiveDonor",
      "outputs": [],
      "payable": false,
      "stateMutability": "nonpayable",
      "type": "function",
      "signature": "0x27c757cd"
    },
    {
      "constant": false,
      "inputs": [
        {
          "name": "addr",
          "type": "address"
        }
      ],
      "name": "approveLiveTransplant",
      "outputs": [],
      "payable": false,
      "stateMutability": "nonpayable",
      "type": "function",
      "signature": "0xf0126f5e"
    },
    {
      "constant": false,
      "inputs": [
        {
          "name": "addr",
          "type": "address"
        }
      ],
      "name": "removeLiveTransplantApproval",
      "outputs": [],
      "payable": false,
      "stateMutability": "nonpayable",
      "type": "function",
      "signature": "0x50894de5"
    },
    {
      "constant": false,
      "inputs": [
        {
          "name": "addr",
          "type": "address"
        }
      ],
      "name": "verifyLiveDonorByAdmin",
      "outputs": [],
      "payable": false,
      "stateMutability": "nonpayable",
      "type": "function",
      "signature": "0x574b49ee"
    },
    {
      "constant": false,
      "inputs": [
        {
          "name": "addr",
          "type": "address"
        }
      ],
      "name": "getVerificationLiveDonorByAdmin",
      "outputs": [],
      "payable": false,
      "stateMutability": "nonpayable",
      "type": "function",
      "signature": "0x4106de13"
    },
    {
      "constant": false,
      "inputs": [
        {
          "name": "addr",
          "type": "address"
        }
      ],
      "name": "addDeadDonor",
      "outputs": [],
      "payable": false,
      "stateMutability": "nonpayable",
      "type": "function",
      "signature": "0x2d062add"
    },
    {
      "constant": true,
      "inputs": [],
      "name": "getDeadDonors",
      "outputs": [
        {
          "name": "",
          "type": "address[]"
        }
      ],
      "payable": false,
      "stateMutability": "view",
      "type": "function",
      "signature": "0x118ca996"
    },
    {
      "constant": false,
      "inputs": [
        {
          "name": "addr",
          "type": "address"
        }
      ],
      "name": "removeDeadDonor",
      "outputs": [],
      "payable": false,
      "stateMutability": "nonpayable",
      "type": "function",
      "signature": "0x045b5d8e"
    },
    {
      "constant": false,
      "inputs": [
        {
          "name": "oldAddr",
          "type": "address"
        },
        {
          "name": "newAddr",
          "type": "address"
        }
      ],
      "name": "updateDeadDonor",
      "outputs": [],
      "payable": false,
      "stateMutability": "nonpayable",
      "type": "function",
      "signature": "0x53160c92"
    },
    {
      "constant": false,
      "inputs": [
        {
          "name": "addr",
          "type": "address"
        }
      ],
      "name": "approveDeadTransplant",
      "outputs": [],
      "payable": false,
      "stateMutability": "nonpayable",
      "type": "function",
      "signature": "0xbf6346de"
    },
    {
      "constant": false,
      "inputs": [
        {
          "name": "addr",
          "type": "address"
        }
      ],
      "name": "removeDeadTransplantApproval",
      "outputs": [],
      "payable": false,
      "stateMutability": "nonpayable",
      "type": "function",
      "signature": "0x39fa98b6"
    },
    {
      "constant": false,
      "inputs": [
        {
          "name": "addr",
          "type": "address"
        }
      ],
      "name": "verifyDeadDonorByAdmin",
      "outputs": [],
      "payable": false,
      "stateMutability": "nonpayable",
      "type": "function",
      "signature": "0xac66404b"
    },
    {
      "constant": false,
      "inputs": [
        {
          "name": "addr",
          "type": "address"
        }
      ],
      "name": "getVerificationDeadDonorByAdmin",
      "outputs": [],
      "payable": false,
      "stateMutability": "nonpayable",
      "type": "function",
      "signature": "0x8cafc7e7"
    },
    {
      "constant": true,
      "inputs": [
        {
          "name": "addr",
          "type": "address"
        }
      ],
      "name": "getKidnies",
      "outputs": [
        {
          "name": "",
          "type": "uint256"
        }
      ],
      "payable": false,
      "stateMutability": "view",
      "type": "function",
      "signature": "0x63a4f8a5"
    },
    {
      "constant": false,
      "inputs": [
        {
          "name": "reciever1",
          "type": "address"
        },
        {
          "name": "donor1",
          "type": "address"
        }
      ],
      "name": "transplantLiveDonor",
      "outputs": [],
      "payable": false,
      "stateMutability": "nonpayable",
      "type": "function",
      "signature": "0xa23675f3"
    },
    {
      "constant": false,
      "inputs": [
        {
          "name": "reciever1",
          "type": "address"
        },
        {
          "name": "donor1",
          "type": "address"
        }
      ],
      "name": "transplantDeadDonor",
      "outputs": [],
      "payable": false,
      "stateMutability": "nonpayable",
      "type": "function",
      "signature": "0x8c1b6511"
    },
    {
      "constant": true,
      "inputs": [
        {
          "name": "reciever1",
          "type": "address"
        }
      ],
      "name": "getTransplant",
      "outputs": [
        {
          "name": "",
          "type": "address"
        }
      ],
      "payable": false,
      "stateMutability": "view",
      "type": "function",
      "signature": "0xe262528e"
    },
    {
      "constant": true,
      "inputs": [],
      "name": "getTransplants",
      "outputs": [
        {
          "name": "",
          "type": "address[]"
        }
      ],
      "payable": false,
      "stateMutability": "view",
      "type": "function",
      "signature": "0xc8aafb23"
    }
  ],
  "bytecode": "0x608060405234801561001057600080fd5b50336000806101000a81548173ffffffffffffffffffffffffffffffffffffffff021916908373ffffffffffffffffffffffffffffffffffffffff160217905550614e2c806100606000396000f3fe6080604052600436106101a6576000357c010000000000000000000000000000000000000000000000000000000090048063045b5d8e146101ab578063118ca996146101fc57806317091449146102685780631cc1befe146102b957806327c757cd1461031e5780632d062add1461038f57806331f1bc05146103e057806339fa98b61461044c5780633d0de8781461049d5780634106de13146104ee578063488ff97b1461053f57806350894de51461059057806353160c92146105e1578063574b49ee1461065257806363a4f8a5146106a35780636cfadb4d146107085780636e9960c314610774578063704b6c02146107cb57806383b03b171461081c5780638c1b65111461086d5780638cafc7e7146108de578063912c65271461092f5780639609ee4c146109805780639d3042ab146109d1578063a23675f314610a2c578063a993891914610a9d578063ac66404b14610af8578063b3f3339114610b49578063bd2103f214610bb5578063bf6346de14610c26578063c8aafb2314610c77578063dcebe70414610ce3578063e262528e14610d34578063f0126f5e14610dc5575b600080fd5b3480156101b757600080fd5b506101fa600480360360208110156101ce57600080fd5b81019080803573ffffffffffffffffffffffffffffffffffffffff169060200190929190505050610e16565b005b34801561020857600080fd5b5061021161106b565b6040518080602001828103825283818151815260200191508051906020019060200280838360005b83811015610254578082015181840152602081019050610239565b505050509050019250505060405180910390f35b34801561027457600080fd5b506102b76004803603602081101561028b57600080fd5b81019080803573ffffffffffffffffffffffffffffffffffffffff1690602001909291905050506110f9565b005b3480156102c557600080fd5b50610308600480360360208110156102dc57600080fd5b81019080803573ffffffffffffffffffffffffffffffffffffffff16906020019092919050505061138d565b6040518082815260200191505060405180910390f35b34801561032a57600080fd5b5061038d6004803603604081101561034157600080fd5b81019080803573ffffffffffffffffffffffffffffffffffffffff169060200190929190803573ffffffffffffffffffffffffffffffffffffffff169060200190929190505050611563565b005b34801561039b57600080fd5b506103de600480360360208110156103b257600080fd5b81019080803573ffffffffffffffffffffffffffffffffffffffff16906020019092919050505061163f565b005b3480156103ec57600080fd5b506103f56118d3565b6040518080602001828103825283818151815260200191508051906020019060200280838360005b8381101561043857808201518184015260208101905061041d565b505050509050019250505060405180910390f35b34801561045857600080fd5b5061049b6004803603602081101561046f57600080fd5b81019080803573ffffffffffffffffffffffffffffffffffffffff169060200190929190505050611961565b005b3480156104a957600080fd5b506104ec600480360360208110156104c057600080fd5b81019080803573ffffffffffffffffffffffffffffffffffffffff169060200190929190505050611b71565b005b3480156104fa57600080fd5b5061053d6004803603602081101561051157600080fd5b81019080803573ffffffffffffffffffffffffffffffffffffffff169060200190929190505050611d59565b005b34801561054b57600080fd5b5061058e6004803603602081101561056257600080fd5b81019080803573ffffffffffffffffffffffffffffffffffffffff169060200190929190505050611e7d565b005b34801561059c57600080fd5b506105df600480360360208110156105b357600080fd5b81019080803573ffffffffffffffffffffffffffffffffffffffff169060200190929190505050611fa1565b005b3480156105ed57600080fd5b506106506004803603604081101561060457600080fd5b81019080803573ffffffffffffffffffffffffffffffffffffffff169060200190929190803573ffffffffffffffffffffffffffffffffffffffff16906020019092919050505061218b565b005b34801561065e57600080fd5b506106a16004803603602081101561067557600080fd5b81019080803573ffffffffffffffffffffffffffffffffffffffff169060200190929190505050612267565b005b3480156106af57600080fd5b506106f2600480360360208110156106c657600080fd5b81019080803573ffffffffffffffffffffffffffffffffffffffff16906020019092919050505061244f565b6040518082815260200191505060405180910390f35b34801561071457600080fd5b5061071d612561565b6040518080602001828103825283818151815260200191508051906020019060200280838360005b83811015610760578082015181840152602081019050610745565b505050509050019250505060405180910390f35b34801561078057600080fd5b506107896125ef565b604051808273ffffffffffffffffffffffffffffffffffffffff1673ffffffffffffffffffffffffffffffffffffffff16815260200191505060405180910390f35b3480156107d757600080fd5b5061081a600480360360208110156107ee57600080fd5b81019080803573ffffffffffffffffffffffffffffffffffffffff169060200190929190505050612618565b005b34801561082857600080fd5b5061086b6004803603602081101561083f57600080fd5b81019080803573ffffffffffffffffffffffffffffffffffffffff16906020019092919050505061271f565b005b34801561087957600080fd5b506108dc6004803603604081101561089057600080fd5b81019080803573ffffffffffffffffffffffffffffffffffffffff169060200190929190803573ffffffffffffffffffffffffffffffffffffffff169060200190929190505050612974565b005b3480156108ea57600080fd5b5061092d6004803603602081101561090157600080fd5b81019080803573ffffffffffffffffffffffffffffffffffffffff16906020019092919050505061330a565b005b34801561093b57600080fd5b5061097e6004803603602081101561095257600080fd5b81019080803573ffffffffffffffffffffffffffffffffffffffff16906020019092919050505061342e565b005b34801561098c57600080fd5b506109cf600480360360208110156109a357600080fd5b81019080803573ffffffffffffffffffffffffffffffffffffffff1690602001909291905050506136a9565b005b3480156109dd57600080fd5b50610a2a600480360360408110156109f457600080fd5b81019080803573ffffffffffffffffffffffffffffffffffffffff169060200190929190803590602001909291905050506138d6565b005b348015610a3857600080fd5b50610a9b60048036036040811015610a4f57600080fd5b81019080803573ffffffffffffffffffffffffffffffffffffffff169060200190929190803573ffffffffffffffffffffffffffffffffffffffff169060200190929190505050613aab565b005b348015610aa957600080fd5b50610af660048036036040811015610ac057600080fd5b81019080803573ffffffffffffffffffffffffffffffffffffffff1690602001909291908035906020019092919050505061428e565b005b348015610b0457600080fd5b50610b4760048036036020811015610b1b57600080fd5b81019080803573ffffffffffffffffffffffffffffffffffffffff1690602001909291905050506144d0565b005b348015610b5557600080fd5b50610b5e6146b8565b6040518080602001828103825283818151815260200191508051906020019060200280838360005b83811015610ba1578082015181840152602081019050610b86565b505050509050019250505060405180910390f35b348015610bc157600080fd5b50610c2460048036036040811015610bd857600080fd5b81019080803573ffffffffffffffffffffffffffffffffffffffff169060200190929190803573ffffffffffffffffffffffffffffffffffffffff169060200190929190505050614746565b005b348015610c3257600080fd5b50610c7560048036036020811015610c4957600080fd5b81019080803573ffffffffffffffffffffffffffffffffffffffff169060200190929190505050614865565b005b348015610c8357600080fd5b50610c8c6149b5565b6040518080602001828103825283818151815260200191508051906020019060200280838360005b83811015610ccf578082015181840152602081019050610cb4565b505050509050019250505060405180910390f35b348015610cef57600080fd5b50610d3260048036036020811015610d0657600080fd5b81019080803573ffffffffffffffffffffffffffffffffffffffff169060200190929190505050614a43565b005b348015610d4057600080fd5b50610d8360048036036020811015610d5757600080fd5b81019080803573ffffffffffffffffffffffffffffffffffffffff169060200190929190505050614c70565b604051808273ffffffffffffffffffffffffffffffffffffffff1673ffffffffffffffffffffffffffffffffffffffff16815260200191505060405180910390f35b348015610dd157600080fd5b50610e1460048036036020811015610de857600080fd5b81019080803573ffffffffffffffffffffffffffffffffffffffff169060200190929190505050614cdc565b005b80600860008273ffffffffffffffffffffffffffffffffffffffff1673ffffffffffffffffffffffffffffffffffffffff16815260200190815260200160002060000160159054906101000a900460ff161515610edb576040517f08c379a000000000000000000000000000000000000000000000000000000000815260040180806020018281038252600f8152602001807f446f6e6f72206e6f74206578697374000000000000000000000000000000000081525060200191505060405180910390fd5b60008090505b600380549050811015610fa5578273ffffffffffffffffffffffffffffffffffffffff16600382815481101515610f1457fe5b9060005260206000200160009054906101000a900473ffffffffffffffffffffffffffffffffffffffff1673ffffffffffffffffffffffffffffffffffffffff161415610f9857600381815481101515610f6a57fe5b9060005260206000200160006101000a81549073ffffffffffffffffffffffffffffffffffffffff02191690555b8080600101915050610ee1565b50600860008373ffffffffffffffffffffffffffffffffffffffff1673ffffffffffffffffffffffffffffffffffffffff168152602001908152602001600020600080820160006101000a81549073ffffffffffffffffffffffffffffffffffffffff02191690556000820160146101000a81549060ff02191690556000820160156101000a81549060ff02191690556000820160166101000a81549060ff02191690556000820160176101000a81549060ff0219169055600182016000905550505050565b606060038054806020026020016040519081016040528092919081815260200182805480156110ef57602002820191906000526020600020905b8160009054906101000a900473ffffffffffffffffffffffffffffffffffffffff1673ffffffffffffffffffffffffffffffffffffffff16815260200190600101908083116110a5575b5050505050905090565b80600760008273ffffffffffffffffffffffffffffffffffffffff1673ffffffffffffffffffffffffffffffffffffffff16815260200190815260200160002060000160159054906101000a900460ff161515156111bf576040517f08c379a00000000000000000000000000000000000000000000000000000000081526004018080602001828103825260138152602001807f416c726561647920616464656420646f6e6f720000000000000000000000000081525060200191505060405180910390fd5b60c0604051908101604052808373ffffffffffffffffffffffffffffffffffffffff1681526020016000151581526020016001151581526020016000151581526020016001151581526020016001815250600760008473ffffffffffffffffffffffffffffffffffffffff1673ffffffffffffffffffffffffffffffffffffffff16815260200190815260200160002060008201518160000160006101000a81548173ffffffffffffffffffffffffffffffffffffffff021916908373ffffffffffffffffffffffffffffffffffffffff16021790555060208201518160000160146101000a81548160ff02191690831515021790555060408201518160000160156101000a81548160ff02191690831515021790555060608201518160000160166101000a81548160ff02191690831515021790555060808201518160000160176101000a81548160ff02191690831515021790555060a0820151816001015590505060028290806001815401808255809150509060018203906000526020600020016000909192909190916101000a81548173ffffffffffffffffffffffffffffffffffffffff021916908373ffffffffffffffffffffffffffffffffffffffff160217905550505050565b60003373ffffffffffffffffffffffffffffffffffffffff166000809054906101000a900473ffffffffffffffffffffffffffffffffffffffff1673ffffffffffffffffffffffffffffffffffffffff16141515611453576040517f08c379a00000000000000000000000000000000000000000000000000000000081526004018080602001828103825260178152602001807f596f757220617265206e6f7420617574686f72697a656400000000000000000081525060200191505060405180910390fd5b81600660008273ffffffffffffffffffffffffffffffffffffffff1673ffffffffffffffffffffffffffffffffffffffff16815260200190815260200160002060000160149054906101000a900460ff161515611518576040517f08c379a00000000000000000000000000000000000000000000000000000000081526004018080602001828103825260128152602001807f5265636965766572206e6f74206578697374000000000000000000000000000081525060200191505060405180910390fd5b600660008473ffffffffffffffffffffffffffffffffffffffff1673ffffffffffffffffffffffffffffffffffffffff16815260200190815260200160002060010154915050919050565b81600760008273ffffffffffffffffffffffffffffffffffffffff1673ffffffffffffffffffffffffffffffffffffffff16815260200190815260200160002060000160159054906101000a900460ff161515611628576040517f08c379a000000000000000000000000000000000000000000000000000000000815260040180806020018281038252600f8152602001807f446f6e6f72206e6f74206578697374000000000000000000000000000000000081525060200191505060405180910390fd5b611631826110f9565b61163a8361271f565b505050565b80600860008273ffffffffffffffffffffffffffffffffffffffff1673ffffffffffffffffffffffffffffffffffffffff16815260200190815260200160002060000160159054906101000a900460ff16151515611705576040517f08c379a00000000000000000000000000000000000000000000000000000000081526004018080602001828103825260138152602001807f416c726561647920616464656420646f6e6f720000000000000000000000000081525060200191505060405180910390fd5b60c0604051908101604052808373ffffffffffffffffffffffffffffffffffffffff1681526020016000151581526020016001151581526020016000151581526020016000151581526020016002815250600860008473ffffffffffffffffffffffffffffffffffffffff1673ffffffffffffffffffffffffffffffffffffffff16815260200190815260200160002060008201518160000160006101000a81548173ffffffffffffffffffffffffffffffffffffffff021916908373ffffffffffffffffffffffffffffffffffffffff16021790555060208201518160000160146101000a81548160ff02191690831515021790555060408201518160000160156101000a81548160ff02191690831515021790555060608201518160000160166101000a81548160ff02191690831515021790555060808201518160000160176101000a81548160ff02191690831515021790555060a0820151816001015590505060038290806001815401808255809150509060018203906000526020600020016000909192909190916101000a81548173ffffffffffffffffffffffffffffffffffffffff021916908373ffffffffffffffffffffffffffffffffffffffff160217905550505050565b6060600580548060200260200160405190810160405280929190818152602001828054801561195757602002820191906000526020600020905b8160009054906101000a900473ffffffffffffffffffffffffffffffffffffffff1673ffffffffffffffffffffffffffffffffffffffff168152602001906001019080831161190d575b5050505050905090565b80600860008273ffffffffffffffffffffffffffffffffffffffff1673ffffffffffffffffffffffffffffffffffffffff16815260200190815260200160002060000160159054906101000a900460ff161515611a26576040517f08c379a000000000000000000000000000000000000000000000000000000000815260040180806020018281038252600f8152602001807f446f6e6f72206e6f74206578697374000000000000000000000000000000000081525060200191505060405180910390fd5b81600860008273ffffffffffffffffffffffffffffffffffffffff1673ffffffffffffffffffffffffffffffffffffffff16815260200190815260200160002060000160149054906101000a900460ff161515611b11576040517f08c379a00000000000000000000000000000000000000000000000000000000081526004018080602001828103825260228152602001807f52656c6174697665206f6620646f6e6f72206469646e277420617070726f766581526020017f642e00000000000000000000000000000000000000000000000000000000000081525060400191505060405180910390fd5b6000600860008573ffffffffffffffffffffffffffffffffffffffff1673ffffffffffffffffffffffffffffffffffffffff16815260200190815260200160002060000160146101000a81548160ff021916908315150217905550505050565b3373ffffffffffffffffffffffffffffffffffffffff166000809054906101000a900473ffffffffffffffffffffffffffffffffffffffff1673ffffffffffffffffffffffffffffffffffffffff16141515611c35576040517f08c379a00000000000000000000000000000000000000000000000000000000081526004018080602001828103825260178152602001807f596f757220617265206e6f7420617574686f72697a656400000000000000000081525060200191505060405180910390fd5b80600660008273ffffffffffffffffffffffffffffffffffffffff1673ffffffffffffffffffffffffffffffffffffffff16815260200190815260200160002060000160149054906101000a900460ff161515611cfa576040517f08c379a00000000000000000000000000000000000000000000000000000000081526004018080602001828103825260128152602001807f5265636965766572206e6f74206578697374000000000000000000000000000081525060200191505060405180910390fd5b6001600660008473ffffffffffffffffffffffffffffffffffffffff1673ffffffffffffffffffffffffffffffffffffffff16815260200190815260200160002060000160156101000a81548160ff0219169083151502179055505050565b80600760008273ffffffffffffffffffffffffffffffffffffffff1673ffffffffffffffffffffffffffffffffffffffff16815260200190815260200160002060000160159054906101000a900460ff161515611e1e576040517f08c379a000000000000000000000000000000000000000000000000000000000815260040180806020018281038252600f8152602001807f446f6e6f72206e6f74206578697374000000000000000000000000000000000081525060200191505060405180910390fd5b6001600760008473ffffffffffffffffffffffffffffffffffffffff1673ffffffffffffffffffffffffffffffffffffffff16815260200190815260200160002060000160166101000a81548160ff0219169083151502179055505050565b80600660008273ffffffffffffffffffffffffffffffffffffffff1673ffffffffffffffffffffffffffffffffffffffff16815260200190815260200160002060000160149054906101000a900460ff161515611f42576040517f08c379a00000000000000000000000000000000000000000000000000000000081526004018080602001828103825260128152602001807f5265636965766572206e6f74206578697374000000000000000000000000000081525060200191505060405180910390fd5b6001600660008473ffffffffffffffffffffffffffffffffffffffff1673ffffffffffffffffffffffffffffffffffffffff16815260200190815260200160002060000160156101000a81548160ff0219169083151502179055505050565b80600760008273ffffffffffffffffffffffffffffffffffffffff1673ffffffffffffffffffffffffffffffffffffffff16815260200190815260200160002060000160159054906101000a900460ff161515612066576040517f08c379a000000000000000000000000000000000000000000000000000000000815260040180806020018281038252600f8152602001807f446f6e6f72206e6f74206578697374000000000000000000000000000000000081525060200191505060405180910390fd5b81600760008273ffffffffffffffffffffffffffffffffffffffff1673ffffffffffffffffffffffffffffffffffffffff16815260200190815260200160002060000160149054906101000a900460ff16151561212b576040517f08c379a00000000000000000000000000000000000000000000000000000000081526004018080602001828103825260168152602001807f446f6e6f72206469646e277420617070726f7665642e0000000000000000000081525060200191505060405180910390fd5b6000600760008573ffffffffffffffffffffffffffffffffffffffff1673ffffffffffffffffffffffffffffffffffffffff16815260200190815260200160002060000160146101000a81548160ff021916908315150217905550505050565b81600860008273ffffffffffffffffffffffffffffffffffffffff1673ffffffffffffffffffffffffffffffffffffffff16815260200190815260200160002060000160159054906101000a900460ff161515612250576040517f08c379a000000000000000000000000000000000000000000000000000000000815260040180806020018281038252600f8152602001807f446f6e6f72206e6f74206578697374000000000000000000000000000000000081525060200191505060405180910390fd5b61225983610e16565b6122628261163f565b505050565b3373ffffffffffffffffffffffffffffffffffffffff166000809054906101000a900473ffffffffffffffffffffffffffffffffffffffff1673ffffffffffffffffffffffffffffffffffffffff1614151561232b576040517f08c379a00000000000000000000000000000000000000000000000000000000081526004018080602001828103825260178152602001807f596f757220617265206e6f7420617574686f72697a656400000000000000000081525060200191505060405180910390fd5b80600760008273ffffffffffffffffffffffffffffffffffffffff1673ffffffffffffffffffffffffffffffffffffffff16815260200190815260200160002060000160159054906101000a900460ff1615156123f0576040517f08c379a000000000000000000000000000000000000000000000000000000000815260040180806020018281038252600f8152602001807f446f6e6f72206e6f74206578697374000000000000000000000000000000000081525060200191505060405180910390fd5b6001600760008473ffffffffffffffffffffffffffffffffffffffff1673ffffffffffffffffffffffffffffffffffffffff16815260200190815260200160002060000160166101000a81548160ff0219169083151502179055505050565b600081600860008273ffffffffffffffffffffffffffffffffffffffff1673ffffffffffffffffffffffffffffffffffffffff16815260200190815260200160002060000160159054906101000a900460ff161515612516576040517f08c379a000000000000000000000000000000000000000000000000000000000815260040180806020018281038252600f8152602001807f446f6e6f72206e6f74206578697374000000000000000000000000000000000081525060200191505060405180910390fd5b600860008473ffffffffffffffffffffffffffffffffffffffff1673ffffffffffffffffffffffffffffffffffffffff16815260200190815260200160002060010154915050919050565b606060018054806020026020016040519081016040528092919081815260200182805480156125e557602002820191906000526020600020905b8160009054906101000a900473ffffffffffffffffffffffffffffffffffffffff1673ffffffffffffffffffffffffffffffffffffffff168152602001906001019080831161259b575b5050505050905090565b60008060009054906101000a900473ffffffffffffffffffffffffffffffffffffffff16905090565b3373ffffffffffffffffffffffffffffffffffffffff166000809054906101000a900473ffffffffffffffffffffffffffffffffffffffff1673ffffffffffffffffffffffffffffffffffffffff161415156126dc576040517f08c379a00000000000000000000000000000000000000000000000000000000081526004018080602001828103825260178152602001807f596f757220617265206e6f7420617574686f72697a656400000000000000000081525060200191505060405180910390fd5b806000806101000a81548173ffffffffffffffffffffffffffffffffffffffff021916908373ffffffffffffffffffffffffffffffffffffffff16021790555050565b80600760008273ffffffffffffffffffffffffffffffffffffffff1673ffffffffffffffffffffffffffffffffffffffff16815260200190815260200160002060000160159054906101000a900460ff1615156127e4576040517f08c379a000000000000000000000000000000000000000000000000000000000815260040180806020018281038252600f8152602001807f446f6e6f72206e6f74206578697374000000000000000000000000000000000081525060200191505060405180910390fd5b60008090505b6002805490508110156128ae578273ffffffffffffffffffffffffffffffffffffffff1660028281548110151561281d57fe5b9060005260206000200160009054906101000a900473ffffffffffffffffffffffffffffffffffffffff1673ffffffffffffffffffffffffffffffffffffffff1614156128a15760028181548110151561287357fe5b9060005260206000200160006101000a81549073ffffffffffffffffffffffffffffffffffffffff02191690555b80806001019150506127ea565b50600760008373ffffffffffffffffffffffffffffffffffffffff1673ffffffffffffffffffffffffffffffffffffffff168152602001908152602001600020600080820160006101000a81549073ffffffffffffffffffffffffffffffffffffffff02191690556000820160146101000a81549060ff02191690556000820160156101000a81549060ff02191690556000820160166101000a81549060ff02191690556000820160176101000a81549060ff0219169055600182016000905550505050565b81600a60008273ffffffffffffffffffffffffffffffffffffffff1673ffffffffffffffffffffffffffffffffffffffff16815260200190815260200160002060010160149054906101000a900460ff16151515612a3a576040517f08c379a00000000000000000000000000000000000000000000000000000000081526004018080602001828103825260178152602001807f416c726561647920646f6e65205472616e73706c616e7400000000000000000081525060200191505060405180910390fd5b3373ffffffffffffffffffffffffffffffffffffffff166000809054906101000a900473ffffffffffffffffffffffffffffffffffffffff1673ffffffffffffffffffffffffffffffffffffffff16141515612afe576040517f08c379a00000000000000000000000000000000000000000000000000000000081526004018080602001828103825260178152602001807f596f757220617265206e6f7420617574686f72697a656400000000000000000081525060200191505060405180910390fd5b82600660008273ffffffffffffffffffffffffffffffffffffffff1673ffffffffffffffffffffffffffffffffffffffff16815260200190815260200160002060000160149054906101000a900460ff161515612bc3576040517f08c379a00000000000000000000000000000000000000000000000000000000081526004018080602001828103825260128152602001807f5265636965766572206e6f74206578697374000000000000000000000000000081525060200191505060405180910390fd5b82600860008273ffffffffffffffffffffffffffffffffffffffff1673ffffffffffffffffffffffffffffffffffffffff16815260200190815260200160002060000160159054906101000a900460ff161515612c88576040517f08c379a000000000000000000000000000000000000000000000000000000000815260040180806020018281038252600f8152602001807f446f6e6f72206e6f74206578697374000000000000000000000000000000000081525060200191505060405180910390fd5b83600860008273ffffffffffffffffffffffffffffffffffffffff1673ffffffffffffffffffffffffffffffffffffffff16815260200190815260200160002060000160149054906101000a900460ff161515612d73576040517f08c379a00000000000000000000000000000000000000000000000000000000081526004018080602001828103825260228152602001807f52656c6174697665206f6620646f6e6f72206469646e277420617070726f766581526020017f642e00000000000000000000000000000000000000000000000000000000000081525060400191505060405180910390fd5b85600660008273ffffffffffffffffffffffffffffffffffffffff1673ffffffffffffffffffffffffffffffffffffffff16815260200190815260200160002060000160159054906101000a900460ff16151515612e39576040517f08c379a00000000000000000000000000000000000000000000000000000000081526004018080602001828103825260158152602001807f4e6f742076657269666965642062792041646d696e000000000000000000000081525060200191505060405180910390fd5b85600860008273ffffffffffffffffffffffffffffffffffffffff1673ffffffffffffffffffffffffffffffffffffffff16815260200190815260200160002060000160169054906101000a900460ff16151515612eff576040517f08c379a00000000000000000000000000000000000000000000000000000000081526004018080602001828103825260158152602001807f4e6f742076657269666965642062792041646d696e000000000000000000000081525060200191505060405180910390fd5b6000600860008973ffffffffffffffffffffffffffffffffffffffff1673ffffffffffffffffffffffffffffffffffffffff1681526020019081526020016000206001015411156131f3576060604051908101604052808973ffffffffffffffffffffffffffffffffffffffff1681526020018873ffffffffffffffffffffffffffffffffffffffff16815260200160011515815250600a60008a73ffffffffffffffffffffffffffffffffffffffff1673ffffffffffffffffffffffffffffffffffffffff16815260200190815260200160002060008201518160000160006101000a81548173ffffffffffffffffffffffffffffffffffffffff021916908373ffffffffffffffffffffffffffffffffffffffff16021790555060208201518160010160006101000a81548173ffffffffffffffffffffffffffffffffffffffff021916908373ffffffffffffffffffffffffffffffffffffffff16021790555060408201518160010160146101000a81548160ff021916908315150217905550905050600860008873ffffffffffffffffffffffffffffffffffffffff1673ffffffffffffffffffffffffffffffffffffffff168152602001908152602001600020600101600081548092919060019003919050555060048890806001815401808255809150509060018203906000526020600020016000909192909190916101000a81548173ffffffffffffffffffffffffffffffffffffffff021916908373ffffffffffffffffffffffffffffffffffffffff16021790555050613147886136a9565b6131508761271f565b61315988614a43565b600960008973ffffffffffffffffffffffffffffffffffffffff1673ffffffffffffffffffffffffffffffffffffffff168152602001908152602001600020600080820160006101000a81549073ffffffffffffffffffffffffffffffffffffffff02191690556000820160146101000a81549060ff02191690556000820160156101000a81549060ff0219169055600182016000905550505b6000600860008973ffffffffffffffffffffffffffffffffffffffff1673ffffffffffffffffffffffffffffffffffffffff16815260200190815260200160002060010154141561330057600860008873ffffffffffffffffffffffffffffffffffffffff1673ffffffffffffffffffffffffffffffffffffffff168152602001908152602001600020600080820160006101000a81549073ffffffffffffffffffffffffffffffffffffffff02191690556000820160146101000a81549060ff02191690556000820160156101000a81549060ff02191690556000820160166101000a81549060ff02191690556000820160176101000a81549060ff0219169055600182016000905550505b5050505050505050565b80600860008273ffffffffffffffffffffffffffffffffffffffff1673ffffffffffffffffffffffffffffffffffffffff16815260200190815260200160002060000160159054906101000a900460ff1615156133cf576040517f08c379a000000000000000000000000000000000000000000000000000000000815260040180806020018281038252600f8152602001807f446f6e6f72206e6f74206578697374000000000000000000000000000000000081525060200191505060405180910390fd5b6001600860008473ffffffffffffffffffffffffffffffffffffffff1673ffffffffffffffffffffffffffffffffffffffff16815260200190815260200160002060000160166101000a81548160ff0219169083151502179055505050565b80600660008273ffffffffffffffffffffffffffffffffffffffff1673ffffffffffffffffffffffffffffffffffffffff16815260200190815260200160002060000160149054906101000a900460ff1615156134f3576040517f08c379a00000000000000000000000000000000000000000000000000000000081526004018080602001828103825260128152602001807f5265636965766572206e6f74206578697374000000000000000000000000000081525060200191505060405180910390fd5b60058290806001815401808255809150509060018203906000526020600020016000909192909190916101000a81548173ffffffffffffffffffffffffffffffffffffffff021916908373ffffffffffffffffffffffffffffffffffffffff16021790555050600660008373ffffffffffffffffffffffffffffffffffffffff1673ffffffffffffffffffffffffffffffffffffffff168152602001908152602001600020600960008473ffffffffffffffffffffffffffffffffffffffff1673ffffffffffffffffffffffffffffffffffffffff1681526020019081526020016000206000820160009054906101000a900473ffffffffffffffffffffffffffffffffffffffff168160000160006101000a81548173ffffffffffffffffffffffffffffffffffffffff021916908373ffffffffffffffffffffffffffffffffffffffff1602179055506000820160149054906101000a900460ff168160000160146101000a81548160ff0219169083151502179055506000820160159054906101000a900460ff168160000160156101000a81548160ff021916908315150217905550600182015481600101559050505050565b80600660008273ffffffffffffffffffffffffffffffffffffffff1673ffffffffffffffffffffffffffffffffffffffff16815260200190815260200160002060000160149054906101000a900460ff16151561376e576040517f08c379a00000000000000000000000000000000000000000000000000000000081526004018080602001828103825260128152602001807f5265636965766572206e6f74206578697374000000000000000000000000000081525060200191505060405180910390fd5b60008090505b600180549050811015613838578273ffffffffffffffffffffffffffffffffffffffff166001828154811015156137a757fe5b9060005260206000200160009054906101000a900473ffffffffffffffffffffffffffffffffffffffff1673ffffffffffffffffffffffffffffffffffffffff16141561382b576001818154811015156137fd57fe5b9060005260206000200160006101000a81549073ffffffffffffffffffffffffffffffffffffffff02191690555b8080600101915050613774565b50600660008373ffffffffffffffffffffffffffffffffffffffff1673ffffffffffffffffffffffffffffffffffffffff168152602001908152602001600020600080820160006101000a81549073ffffffffffffffffffffffffffffffffffffffff02191690556000820160146101000a81549060ff02191690556000820160156101000a81549060ff0219169055600182016000905550505050565b3373ffffffffffffffffffffffffffffffffffffffff166000809054906101000a900473ffffffffffffffffffffffffffffffffffffffff1673ffffffffffffffffffffffffffffffffffffffff1614151561399a576040517f08c379a00000000000000000000000000000000000000000000000000000000081526004018080602001828103825260178152602001807f596f757220617265206e6f7420617574686f72697a656400000000000000000081525060200191505060405180910390fd5b81600660008273ffffffffffffffffffffffffffffffffffffffff1673ffffffffffffffffffffffffffffffffffffffff16815260200190815260200160002060000160149054906101000a900460ff161515613a5f576040517f08c379a00000000000000000000000000000000000000000000000000000000081526004018080602001828103825260128152602001807f5265636965766572206e6f74206578697374000000000000000000000000000081525060200191505060405180910390fd5b81600660008573ffffffffffffffffffffffffffffffffffffffff1673ffffffffffffffffffffffffffffffffffffffff16815260200190815260200160002060010181905550505050565b81600a60008273ffffffffffffffffffffffffffffffffffffffff1673ffffffffffffffffffffffffffffffffffffffff16815260200190815260200160002060010160149054906101000a900460ff16151515613b71576040517f08c379a00000000000000000000000000000000000000000000000000000000081526004018080602001828103825260178152602001807f416c726561647920646f6e65205472616e73706c616e7400000000000000000081525060200191505060405180910390fd5b3373ffffffffffffffffffffffffffffffffffffffff166000809054906101000a900473ffffffffffffffffffffffffffffffffffffffff1673ffffffffffffffffffffffffffffffffffffffff16141515613c35576040517f08c379a00000000000000000000000000000000000000000000000000000000081526004018080602001828103825260178152602001807f596f757220617265206e6f7420617574686f72697a656400000000000000000081525060200191505060405180910390fd5b82600660008273ffffffffffffffffffffffffffffffffffffffff1673ffffffffffffffffffffffffffffffffffffffff16815260200190815260200160002060000160149054906101000a900460ff161515613cfa576040517f08c379a00000000000000000000000000000000000000000000000000000000081526004018080602001828103825260128152602001807f5265636965766572206e6f74206578697374000000000000000000000000000081525060200191505060405180910390fd5b82600760008273ffffffffffffffffffffffffffffffffffffffff1673ffffffffffffffffffffffffffffffffffffffff16815260200190815260200160002060000160159054906101000a900460ff161515613dbf576040517f08c379a000000000000000000000000000000000000000000000000000000000815260040180806020018281038252600f8152602001807f446f6e6f72206e6f74206578697374000000000000000000000000000000000081525060200191505060405180910390fd5b83600760008273ffffffffffffffffffffffffffffffffffffffff1673ffffffffffffffffffffffffffffffffffffffff16815260200190815260200160002060000160149054906101000a900460ff161515613e84576040517f08c379a00000000000000000000000000000000000000000000000000000000081526004018080602001828103825260168152602001807f446f6e6f72206469646e277420617070726f7665642e0000000000000000000081525060200191505060405180910390fd5b85600660008273ffffffffffffffffffffffffffffffffffffffff1673ffffffffffffffffffffffffffffffffffffffff16815260200190815260200160002060000160159054906101000a900460ff16151515613f4a576040517f08c379a00000000000000000000000000000000000000000000000000000000081526004018080602001828103825260158152602001807f4e6f742076657269666965642062792041646d696e000000000000000000000081525060200191505060405180910390fd5b85600760008273ffffffffffffffffffffffffffffffffffffffff1673ffffffffffffffffffffffffffffffffffffffff16815260200190815260200160002060000160169054906101000a900460ff16151515614010576040517f08c379a00000000000000000000000000000000000000000000000000000000081526004018080602001828103825260158152602001807f4e6f742076657269666965642062792041646d696e000000000000000000000081525060200191505060405180910390fd5b6060604051908101604052808973ffffffffffffffffffffffffffffffffffffffff1681526020018873ffffffffffffffffffffffffffffffffffffffff16815260200160011515815250600a60008a73ffffffffffffffffffffffffffffffffffffffff1673ffffffffffffffffffffffffffffffffffffffff16815260200190815260200160002060008201518160000160006101000a81548173ffffffffffffffffffffffffffffffffffffffff021916908373ffffffffffffffffffffffffffffffffffffffff16021790555060208201518160010160006101000a81548173ffffffffffffffffffffffffffffffffffffffff021916908373ffffffffffffffffffffffffffffffffffffffff16021790555060408201518160010160146101000a81548160ff02191690831515021790555090505060048890806001815401808255809150509060018203906000526020600020016000909192909190916101000a81548173ffffffffffffffffffffffffffffffffffffffff021916908373ffffffffffffffffffffffffffffffffffffffff160217905550506141ba886136a9565b6141c38761271f565b600760008873ffffffffffffffffffffffffffffffffffffffff1673ffffffffffffffffffffffffffffffffffffffff168152602001908152602001600020600080820160006101000a81549073ffffffffffffffffffffffffffffffffffffffff02191690556000820160146101000a81549060ff02191690556000820160156101000a81549060ff02191690556000820160166101000a81549060ff02191690556000820160176101000a81549060ff0219169055600182016000905550505050505050505050565b81600660008273ffffffffffffffffffffffffffffffffffffffff1673ffffffffffffffffffffffffffffffffffffffff16815260200190815260200160002060000160149054906101000a900460ff16151515614354576040517f08c379a00000000000000000000000000000000000000000000000000000000081526004018080602001828103825260168152602001807f416c72656164792061646465642072656369657665720000000000000000000081525060200191505060405180910390fd5b6080604051908101604052808473ffffffffffffffffffffffffffffffffffffffff16815260200160011515815260200160001515815260200183815250600660008573ffffffffffffffffffffffffffffffffffffffff1673ffffffffffffffffffffffffffffffffffffffff16815260200190815260200160002060008201518160000160006101000a81548173ffffffffffffffffffffffffffffffffffffffff021916908373ffffffffffffffffffffffffffffffffffffffff16021790555060208201518160000160146101000a81548160ff02191690831515021790555060408201518160000160156101000a81548160ff0219169083151502179055506060820151816001015590505060018390806001815401808255809150509060018203906000526020600020016000909192909190916101000a81548173ffffffffffffffffffffffffffffffffffffffff021916908373ffffffffffffffffffffffffffffffffffffffff16021790555050505050565b3373ffffffffffffffffffffffffffffffffffffffff166000809054906101000a900473ffffffffffffffffffffffffffffffffffffffff1673ffffffffffffffffffffffffffffffffffffffff16141515614594576040517f08c379a00000000000000000000000000000000000000000000000000000000081526004018080602001828103825260178152602001807f596f757220617265206e6f7420617574686f72697a656400000000000000000081525060200191505060405180910390fd5b80600860008273ffffffffffffffffffffffffffffffffffffffff1673ffffffffffffffffffffffffffffffffffffffff16815260200190815260200160002060000160159054906101000a900460ff161515614659576040517f08c379a000000000000000000000000000000000000000000000000000000000815260040180806020018281038252600f8152602001807f446f6e6f72206e6f74206578697374000000000000000000000000000000000081525060200191505060405180910390fd5b6001600860008473ffffffffffffffffffffffffffffffffffffffff1673ffffffffffffffffffffffffffffffffffffffff16815260200190815260200160002060000160166101000a81548160ff0219169083151502179055505050565b6060600280548060200260200160405190810160405280929190818152602001828054801561473c57602002820191906000526020600020905b8160009054906101000a900473ffffffffffffffffffffffffffffffffffffffff1673ffffffffffffffffffffffffffffffffffffffff16815260200190600101908083116146f2575b5050505050905090565b81600660008273ffffffffffffffffffffffffffffffffffffffff1673ffffffffffffffffffffffffffffffffffffffff16815260200190815260200160002060000160149054906101000a900460ff16151561480b576040517f08c379a00000000000000000000000000000000000000000000000000000000081526004018080602001828103825260128152602001807f5265636965766572206e6f74206578697374000000000000000000000000000081525060200191505060405180910390fd5b61485782600660008673ffffffffffffffffffffffffffffffffffffffff1673ffffffffffffffffffffffffffffffffffffffff1681526020019081526020016000206001015461428e565b614860836136a9565b505050565b80600860008273ffffffffffffffffffffffffffffffffffffffff1673ffffffffffffffffffffffffffffffffffffffff16815260200190815260200160002060000160159054906101000a900460ff16151561492a576040517f08c379a000000000000000000000000000000000000000000000000000000000815260040180806020018281038252600f8152602001807f446f6e6f72206e6f74206578697374000000000000000000000000000000000081525060200191505060405180910390fd5b6001600860008473ffffffffffffffffffffffffffffffffffffffff1673ffffffffffffffffffffffffffffffffffffffff16815260200190815260200160002060000160146101000a81548160ff0219169083151502179055507fb97ea88899dd08b6ffdec3d991bcb6205f535ca4c1e212a0b350bfdb3ab11d8f60405160405180910390a15050565b60606004805480602002602001604051908101604052809291908181526020018280548015614a3957602002820191906000526020600020905b8160009054906101000a900473ffffffffffffffffffffffffffffffffffffffff1673ffffffffffffffffffffffffffffffffffffffff16815260200190600101908083116149ef575b5050505050905090565b80600660008273ffffffffffffffffffffffffffffffffffffffff1673ffffffffffffffffffffffffffffffffffffffff16815260200190815260200160002060000160149054906101000a900460ff161515614b08576040517f08c379a00000000000000000000000000000000000000000000000000000000081526004018080602001828103825260128152602001807f5265636965766572206e6f74206578697374000000000000000000000000000081525060200191505060405180910390fd5b60008090505b600580549050811015614bd2578273ffffffffffffffffffffffffffffffffffffffff16600582815481101515614b4157fe5b9060005260206000200160009054906101000a900473ffffffffffffffffffffffffffffffffffffffff1673ffffffffffffffffffffffffffffffffffffffff161415614bc557600581815481101515614b9757fe5b9060005260206000200160006101000a81549073ffffffffffffffffffffffffffffffffffffffff02191690555b8080600101915050614b0e565b50600960008373ffffffffffffffffffffffffffffffffffffffff1673ffffffffffffffffffffffffffffffffffffffff168152602001908152602001600020600080820160006101000a81549073ffffffffffffffffffffffffffffffffffffffff02191690556000820160146101000a81549060ff02191690556000820160156101000a81549060ff0219169055600182016000905550505050565b6000600a60008373ffffffffffffffffffffffffffffffffffffffff1673ffffffffffffffffffffffffffffffffffffffff16815260200190815260200160002060010160009054906101000a900473ffffffffffffffffffffffffffffffffffffffff169050919050565b80600760008273ffffffffffffffffffffffffffffffffffffffff1673ffffffffffffffffffffffffffffffffffffffff16815260200190815260200160002060000160159054906101000a900460ff161515614da1576040517f08c379a000000000000000000000000000000000000000000000000000000000815260040180806020018281038252600f8152602001807f446f6e6f72206e6f74206578697374000000000000000000000000000000000081525060200191505060405180910390fd5b6001600760008473ffffffffffffffffffffffffffffffffffffffff1673ffffffffffffffffffffffffffffffffffffffff16815260200190815260200160002060000160146101000a81548160ff021916908315150217905550505056fea165627a7a72305820dbc85851ca9da5fc301f1ec4518dd106ee56f4e1e36db42e5383b34ea3ce8a060029",
  "source": "// Solidity Version\npragma solidity >=0.4.26;\n\n// Contract dOrgan\ncontract dOrgan{\n\n    // Events\n    event donorDead();\n\n    // Structs\n    struct Reciever{\n        address patient;\n        bool exist;\n        bool verify;\n        uint priority;\n    }\n\n    struct Donor{\n        address donor;\n        bool approve;\n        bool exist;\n        bool verify;\n        bool live;\n        uint kidnies;\n    }\n\n    struct Transplant{\n        address reciever;\n        address donor;\n        bool exist;\n    }\n\n    // Global Variables\n    address admin;\n    address[] recieverArr;\n    address[] liveDonorArr;\n    address[] deadDonorArr;\n    address[] transplantArr;\n    address[] waitlistArr;\n\n    // Mappings\n    mapping(address => Reciever) recievers;\n    mapping(address => Donor) liveDonors;\n    mapping(address => Donor) deadDonors;\n    mapping(address => Reciever) waitlist;\n    mapping(address => Transplant) transplants;\n\n    // Modifiers\n    modifier verifyAdmin(){\n        require(admin == msg.sender,\"Your are not authorized\");\n        _;\n    }\n\n    modifier checkTransplantedExist(address addr){\n        require(!transplants[addr].exist,\"Already done Transplant\");\n        _;\n    }\n\n    modifier checkVerifyReciever(address addr){\n        require(!recievers[addr].verify,\"Not verified by Admin\");\n        _;\n    }\n\n    modifier checkVerifyLiveDonor(address addr){\n        require(!liveDonors[addr].verify,\"Not verified by Admin\");\n        _;\n    }\n\n    modifier checkVerifyDeadDonor(address addr){\n        require(!deadDonors[addr].verify,\"Not verified by Admin\");\n        _;\n    }\n\n    modifier checkRecieverExist(address addr){\n        require(!recievers[addr].exist,\"Already added reciever\");\n        _;\n    }\n\n    modifier checkLiveDonorExist(address addr){\n        require(!liveDonors[addr].exist,\"Already added donor\");\n        _;\n    }\n\n    modifier checkDeadDonorExist(address addr){\n        require(!deadDonors[addr].exist,\"Already added donor\");\n        _;\n    }\n\n    modifier verifyTransplantExist(address addr){\n        require(transplants[addr].exist,\"Transplant not exist\");\n        _;\n    }\n\n    modifier verifyRecieverExist(address addr){\n        require(recievers[addr].exist,\"Reciever not exist\");\n        _;\n    }\n\n    modifier verifyDeadDonorExist(address addr){\n        require(deadDonors[addr].exist,\"Donor not exist\");\n        _;\n    }\n\n    modifier verifyLiveDonorExist(address addr){\n        require(liveDonors[addr].exist,\"Donor not exist\");\n        _;\n    }\n\n    modifier approveLiveDonor(address liveDonor1){\n        require(liveDonors[liveDonor1].approve,\"Donor didn't approved.\");\n        _;\n    }\n\n    modifier approveDeadDonor(address deadDonor1){\n        require(deadDonors[deadDonor1].approve,\"Relative of donor didn't approved.\");\n        _;\n    }\n\n    // Constructor\n    constructor() public{\n        admin = msg.sender;\n    }\n\n    //Admin Getters & Setters\n    function getAdmin() public view returns(address){\n        return admin;\n    }\n\n    function setAdmin(address admin1) public verifyAdmin{\n        admin = admin1;\n    }\n\n    /*\n    Suppose a Patient detected by ckd stage 5 then, it requires immediate Transplant\n    so, he has two ways, first to go for the Live Donor(i.e. Relatives) or wait in the\n    waiting list (i.e. when some one is dead) to get someone's Kidney.\n    */\n\n    // Patient functions\n    function addReciever(address addr, uint priority1)public checkRecieverExist(addr){\n        recievers[addr] = Reciever(addr,true,false,priority1);\n        recieverArr.push(addr);\n    }\n\n    function getRecievers() public view returns(address[] memory){\n        return recieverArr;\n    }\n\n    function removeReciever(address addr) public verifyRecieverExist(addr){\n        for(uint i = 0; i<recieverArr.length;i++){\n            if(recieverArr[i] == addr) delete recieverArr[i];\n        }\n        delete recievers[addr];\n    }\n\n    function updateReciever(address oldAddr, address newAddr) public verifyRecieverExist(oldAddr){\n        addReciever(newAddr, recievers[oldAddr].priority);\n        removeReciever(oldAddr);\n    }\n\n    function addRecieverToWaitlist(address addr)public verifyRecieverExist(addr){\n        waitlistArr.push(addr);\n        waitlist[addr] = recievers[addr];\n    }\n\n    function getWaitlist() public view returns(address[] memory){\n        return waitlistArr;\n    }\n\n    function removeRecieverFromWaitlist(address addr)public verifyRecieverExist(addr){\n        for(uint i = 0; i<waitlistArr.length;i++){\n            if(waitlistArr[i] == addr) delete waitlistArr[i];\n        }\n        delete waitlist[addr];\n    }\n\n    function getPriority(address addr)public view verifyAdmin verifyRecieverExist(addr) returns(uint){\n        return recievers[addr].priority;\n    }\n\n    function changePriority(address addr, uint priority1)public verifyAdmin verifyRecieverExist(addr){\n        recievers[addr].priority = priority1;\n    }\n\n    function verifyRecieverByAdmin(address addr)public verifyAdmin verifyRecieverExist(addr){\n        recievers[addr].verify = true;\n    }\n\n    function getVerificationRecieverByAdmin(address addr)public verifyRecieverExist(addr){\n        recievers[addr].verify = true;\n    }\n\n    /*\n    Suppose that patient opt for transplantation from a living donor(i.e. Relatives)\n    then the donor(person) has to approve that its Kidney is being transplanted.\n    */\n\n    // Live Donor Functions\n    function addLiveDonor(address addr) public checkLiveDonorExist(addr){\n        liveDonors[addr] = Donor(addr, false,true,false,true,1);\n        liveDonorArr.push(addr);\n    }\n\n    function getLiveDonors() public view returns(address[] memory){\n        return liveDonorArr;\n    }\n\n    function removeLiveDonor(address addr) public verifyLiveDonorExist(addr){\n        for(uint i = 0; i<liveDonorArr.length;i++){\n            if(liveDonorArr[i] == addr) delete liveDonorArr[i];\n        }\n        delete liveDonors[addr];\n    }\n\n    function updateLiveDonor(address oldAddr, address newAddr) public verifyLiveDonorExist(oldAddr){\n        addLiveDonor(newAddr);\n        removeLiveDonor(oldAddr);\n    }\n\n    function approveLiveTransplant(address addr)public verifyLiveDonorExist(addr){\n        liveDonors[addr].approve = true;\n    }\n\n    function removeLiveTransplantApproval(address addr)public verifyLiveDonorExist(addr) approveLiveDonor(addr){\n        liveDonors[addr].approve = false;\n    }\n\n    function verifyLiveDonorByAdmin(address addr)public verifyAdmin verifyLiveDonorExist(addr){\n        liveDonors[addr].verify = true;\n    }\n\n    function getVerificationLiveDonorByAdmin(address addr)public verifyLiveDonorExist(addr){\n        liveDonors[addr].verify = true;\n    }\n\n    /*\n    Suppose that patient opt for transplantation from a dead donor(i.e. a person who has died)\n    then the donor's relatives has to approve that its kidneies are being transplanted.\n    */\n\n    // Dead Donor Functions\n    function addDeadDonor(address addr) public checkDeadDonorExist(addr){\n        deadDonors[addr] = Donor(addr, false,true,false,false,2);\n        deadDonorArr.push(addr);\n    }\n\n    function getDeadDonors() public view returns(address[] memory){\n        return deadDonorArr;\n    }\n\n    function removeDeadDonor(address addr) public verifyDeadDonorExist(addr){\n        for(uint i = 0; i<deadDonorArr.length;i++){\n            if(deadDonorArr[i] == addr) delete deadDonorArr[i];\n        }\n        delete deadDonors[addr];\n    }\n\n    function updateDeadDonor(address oldAddr, address newAddr) public verifyDeadDonorExist(oldAddr){\n        removeDeadDonor(oldAddr);\n        addDeadDonor(newAddr);\n    }\n\n    /*\n    If approved then his kidneies go to the nemerous people in demmand of kidney in waitlist.\n    */\n\n    function approveDeadTransplant(address addr)public verifyDeadDonorExist(addr){\n        deadDonors[addr].approve = true;\n        emit donorDead(); // ML Predictions Here\n    }\n\n    function removeDeadTransplantApproval(address addr)public verifyDeadDonorExist(addr) approveDeadDonor(addr){\n        deadDonors[addr].approve = false;\n    }\n\n    function verifyDeadDonorByAdmin(address addr)public verifyAdmin verifyDeadDonorExist(addr){\n        deadDonors[addr].verify = true;\n    }\n\n    function getVerificationDeadDonorByAdmin(address addr)public verifyDeadDonorExist(addr){\n        deadDonors[addr].verify = true;\n    }\n\n    function getKidnies(address addr)public view verifyDeadDonorExist(addr) returns(uint){\n        return deadDonors[addr].kidnies;\n    }\n\n    /*\n    Final Transplant.\n    */\n\n    // Transplant functions\n    function transplantLiveDonor(address reciever1,address donor1) public checkTransplantedExist(reciever1) verifyAdmin verifyRecieverExist(reciever1) verifyLiveDonorExist(donor1) approveLiveDonor(donor1) checkVerifyReciever(reciever1) checkVerifyLiveDonor(donor1) {\n        transplants[reciever1] = Transplant(reciever1,donor1,true);\n        transplantArr.push(reciever1);\n        removeReciever(reciever1);\n        removeLiveDonor(donor1);\n        delete liveDonors[donor1];\n    }\n\n    function transplantDeadDonor(address reciever1,address donor1) public checkTransplantedExist(reciever1) verifyAdmin verifyRecieverExist(reciever1) verifyDeadDonorExist(donor1) approveDeadDonor(donor1) checkVerifyReciever(reciever1) checkVerifyDeadDonor(donor1) {\n        if(deadDonors[donor1].kidnies > 0){\n            transplants[reciever1] = Transplant(reciever1,donor1,true);\n            deadDonors[donor1].kidnies --;\n            transplantArr.push(reciever1);\n            removeReciever(reciever1);\n            removeLiveDonor(donor1);\n            removeRecieverFromWaitlist(reciever1);\n            delete waitlist[reciever1];\n        }\n        if(deadDonors[donor1].kidnies == 0){\n            delete deadDonors[donor1];\n        }\n    }\n\n    function getTransplant(address reciever1)public view returns(address){\n        return transplants[reciever1].donor;\n    }\n\n    function getTransplants() public view returns(address[] memory){\n        return transplantArr;\n    }\n}",
  "sourcePath": "/Users/shri99/WebstormProjects/JuniorG-healthcare-dapp/ethereum/contracts/dOrgan.sol",
  "compiler": {
    "name": "solc",
    "version": "0.5.1+commit.c8a2cb62.Emscripten.clang"
  },
  "schemaVersion": "3.0.1",
  "updatedAt": "2019-02-17T03:44:31.571Z",
  "devdoc": {
    "methods": {}
  },
  "userdoc": {
    "methods": {}
  }
}